:100000000C945D000C9485000C9485000C94850084
:100010000C9485000C9485000C9485000C9485004C
:100020000C9485000C9485000C9485000C9485003C
:100030000C9485000C9485000C9485000C9485002C
:100040000C944A050C9485000C9418050C94F20449
:100050000C9485000C9485000C9485000C9485000C
:100060000C9485000C94850000000008000201003B
:100070000003040700000000000000000000000072
:10008000250028002B0000000000240027002A0083
:10009000040404040404040402020202020203032E
:1000A0000303030301020408102040800102040836
:1000B0001020010204081020940511241FBECFEF68
:1000C000D8E0DEBFCDBF11E0A0E0B1E0E2EFF2E1A9
:1000D00002C005900D92AE33B107D9F722E0AEE32E
:1000E000B1E001C01D92A431B207E1F710E0CDE507
:1000F000D0E004C02197FE010E947109CC35D107E0
:10010000C9F70E9401060C9477090C94000090E056
:10011000FC01EC55FF4F249180579F4FFC018491C7
:10012000882399F090E0880F991FFC01EA57FF4F50
:10013000A591B491FC01E458FF4F859194918FB73C
:10014000F894EC91E22BEC938FBF0895AF92BF929D
:10015000CF92DF92EF92FF920F931F93CF93DF9393
:100160006C017B018B01040F151FEB015E01AE18C2
:10017000BF08C017D10759F06991D601ED91FC91E4
:100180000190F081E02DC6010995892B79F7C50111
:10019000DF91CF911F910F91FF90EF90DF90CF9063
:1001A000BF90AF900895FC01538D448D252F30E012
:1001B000842F90E0821B930B541710F0CF96089574
:1001C00001970895FC01918D828D981761F0A28DA1
:1001D000AE0FBF2FB11D5D968C91928D9F5F9F7367
:1001E000928F90E008958FEF9FEF0895FC01918D1D
:1001F000828D981731F0828DE80FF11D858D90E08A
:1002000008958FEF9FEF0895FC01918D228D892F26
:1002100090E0805C9F4F821B91098F73992708950E
:1002200087E491E00E94040121E0892B09F420E099
:10023000822F089580E090E0892B29F00E94100120
:1002400081110C9400000895FC01A48DA80FB92F12
:10025000B11DA35ABF4F2C91848D90E001968F73EE
:100260009927848FA689B7892C93A089B1898C910D
:10027000837080648C93938D848D981306C002885C
:10028000F389E02D80818F7D80830895EF92FF9226
:100290000F931F93CF93DF93EC0181E0888F9B8DA9
:1002A0008C8D98131AC0E889F989808185FF15C063
:1002B0009FB7F894EE89FF896083E889F989808186
:1002C0008370806480839FBF81E090E0DF91CF9155
:1002D0001F910F91FF90EF900895F62E0B8D10E077
:1002E0000F5F1F4F0F731127E02E8C8D8E110CC0E6
:1002F0000FB607FCFACFE889F989808185FFF5CF31
:10030000CE010E942401F1CFEB8DEC0FFD2FF11DEA
:10031000E35AFF4FF0829FB7F8940B8FEA89FB896D
:1003200080818062CFCFCF93DF93EC01888D8823CB
:10033000B9F0AA89BB89E889F9898C9185FD03C048
:10034000808186FD0DC00FB607FCF7CF8C9185FF2D
:10035000F2CF808185FFEDCFCE010E942401E9CF4D
:10036000DF91CF91089590E0FC01E859FF4F24916F
:10037000FC01EC55FF4F3491FC01E057FF4FE49135
:10038000EE23C9F0222339F0233001F1A8F4213003
:1003900019F1223029F1F0E0EE0FFF1FE458FF4F72
:1003A000A591B4918FB7F894EC91611126C0309566
:1003B0003E233C938FBF08952730A9F02830C9F021
:1003C000243049F7809180008F7D03C080918000A8
:1003D0008F7780938000DFCF84B58F7784BDDBCFAC
:1003E00084B58F7DFBCF8091B0008F778093B00074
:1003F000D2CF8091B0008F7DF9CF3E2BDACF8E30F7
:1004000008F08E508770806480937C0080917A0021
:10041000806480937A0080917A0086FDFCCF809181
:1004200078009091790008953FB7F8948091430146
:1004300090914401A0914501B091460126B5A89B39
:1004400005C02F3F19F00196A11DB11D3FBFBA2F66
:10045000A92F982F8827BC01CD01620F711D811D26
:10046000911D42E0660F771F881F991F4A95D1F7AB
:1004700008958F929F92AF92BF92CF92DF92EF92A8
:10048000FF920E9414024B015C0188EEC82E83E0AB
:10049000D82EE12CF12C0E941402681979098A09DE
:1004A0009B09683E734081059105A8F321E0C21ABB
:1004B000D108E108F10888EE880E83E0981EA11C9F
:1004C000B11CC114D104E104F10429F7FF90EF90AD
:1004D000DF90CF90BF90AF909F908F900895089538
:1004E00090E080E00895FB0101900020E9F731974A
:1004F000AF01461B570B0C94A6008F929F92AF92B0
:10050000BF92EF92FF920F931F93CF93DF93CDB7DC
:10051000DEB7A1970FB6F894DEBF0FBECDBF7C014A
:10052000FA01CB0119A2223008F42AE08E010F5DF6
:100530001F4F822E912CB12CA12CBF01A50194013B
:100540000E944F09F901CA016A300CF5605DD801BB
:100550006E938D01232B242B252B79F790E080E0DF
:10056000109721F0BD01C7010E947302A1960FB63A
:10057000F894DEBF0FBECDBFDF91CF911F910F91D9
:10058000FF90EF90BF90AF909F908F900895695C1F
:10059000DECFCF93DF93EC0160E08E810E94B30148
:1005A00061E08E810E94B30160E08E810E94B30100
:1005B0008BE891E00197F1F7DF91CF910895CF9209
:1005C000DF92EF92FF920F931F93CF93DF936C0113
:1005D0007C0187E0E80EF11CD0E0C0E0062F10E0BF
:1005E000B8010C2E02C0759567950A94E2F7617008
:1005F000F70181917F010E94B3012196C430D1059A
:1006000079F7C601DF91CF911F910F91FF90EF9085
:10061000DF90CF900C94C902CF92DF92EF92FF92BD
:100620000F931F93CF93DF93EC01F62E642F8C81F1
:100630000E94B3018D818F3F19F060E00E94B301E9
:100640000F2D10E08F8584FF25C06E0187E0C80E56
:10065000D11CF12CE12CB8010E2C02C075956795C8
:100660000A94E2F76170F60181916F010E94B30173
:10067000FFEFEF1AFF0A88E0E816F10461F7CE01F8
:10068000DF91CF911F910F91FF90EF90DF90CF906E
:100690000C94C902B80184E0759567958A95E1F7D5
:1006A000CE010E94DF026F2DCE01DF91CF911F910D
:1006B0000F91FF90EF90DF90CF900C94DF0241E01C
:1006C0000E940C0381E090E008952F923F924F9298
:1006D0005F926F927F928F929F92AF92BF92CF92D2
:1006E000DF92EF92FF921F93CF93DF93EC016A01A9
:1006F0007B01722EAB019601CB01B6010E944A0923
:100700006EE171E0811126C046015701E894B7F807
:100710002FEF3FEF4FE75FE7C501B4010E944A09A1
:1007200081110CC02FEF3FEF4FE75FE7C501B40128
:100730000E94800762E271E0181664F02FEF3FEF2D
:100740004FE75FE4C701B6010E94D8081816B4F459
:1007500066E271E0CE01DF91CF911F91FF90EF90A3
:10076000DF90CF90BF90AF909F908F907F906F90D1
:100770005F904F903F902F900C9473022FEF3FEFBC
:100780004FE75FECC701B6010E94800787FDE0CF0D
:1007900020E030E0A901C701B6010E948007312C9A
:1007A000212C87FF0CC041E06DE2CE010E940C03BA
:1007B000F7FAF094F7F8F09422242394312C10E007
:1007C00060E070E080E09FE3711641F020E030E0EF
:1007D00040E251E40E9485071F5FF6CFA701960112
:1007E0000E9414072B013C010E94F7074B015C019A
:1007F0002AE0BC01A401CE010E947D027C01E20C32
:10080000F31C1123D1F1C501B4010E9426089B01FC
:10081000AC01C301B2010E9413074B015C0141E02E
:100820006EE2CE010E940C038FEFE81AF80A115015
:1008300020F120E030E040E251E4C501B4010E9423
:10084000DD082B013C010E94F7074B01B12CA12CC4
:100850002AE0B501A401CE010E947D02E80EF91E36
:10086000C501B4010E9426089B01AC01C301B2017D
:100870000E9413074B015C01DACFC701DF91CF91D2
:100880001F91FF90EF90DF90CF90BF90AF909F901F
:100890008F907F906F905F904F903F902F90089532
:1008A00040E061E00E940C038BE39FE10197F1F7C8
:1008B00008950F931F93CF93DF93EC01623019F4E7
:1008C0008F8588608F876B8B1C8A80E48D8B80E19D
:1008D0008E8B80E58F8B8C810E9487008D818F3F6E
:1008E00011F00E9487008E810E9487008E0198017E
:1008F0002C1B3D0B8F8584FD0CC084E090E00F5FC6
:100900001F4F2817390744F4F80186810E94870099
:10091000EECF88E090E0F3CF8BE39DE00197F1F715
:1009200060E08C810E94B30160E08E810E94B3017F
:100930008D818F3F19F060E00E94B3016F8564FDE7
:1009400037C063E0CE010E94DF020BE416E4C80169
:100950000197F1F763E0CE010E94DF02C801019721
:10096000F1F763E0CE010E94DF0283E592E0019798
:10097000F1F762E0CE010E94DF026F85606240E025
:10098000CE010E940C0384E0888B40E06CE0CE0135
:100990000E940C03CE010E94500482E0898B40E04B
:1009A00066E0CE01DF91CF911F910F910C940C0363
:1009B000606240E0CE010E940C038BE496E4019754
:1009C000F1F76F85606240E0CE010E940C0383E581
:1009D00092E00197F1F76F85606240E0CE010E94DE
:1009E0000C03CBCF1F920F920FB60F9211242F93AF
:1009F0003F934F935F936F937F938F939F93AF93A7
:100A0000BF93EF93FF9387E491E00E942401FF914D
:100A1000EF91BF91AF919F918F917F916F915F9176
:100A20004F913F912F910F900FBE0F901F901895EF
:100A30001F920F920FB60F9211242F938F939F93B3
:100A4000EF93FF93E0915701F09158018081E0917D
:100A50005D01F0915E0182FD1BC09081809160017B
:100A60008F5F8F7320916101821741F0E0916001E7
:100A7000F0E0E95BFE4F958F80936001FF91EF916D
:100A80009F918F912F910F900FBE0F901F901895EF
:100A90008081F4CF1F920F920FB60F9211242F93E3
:100AA0003F938F939F93AF93BF9380913F0190911A
:100AB0004001A0914101B091420130913E0123E0FB
:100AC000230F2D3758F50196A11DB11D20933E012E
:100AD00080933F0190934001A0934101B093420164
:100AE0008091430190914401A0914501B09146014C
:100AF0000196A11DB11D8093430190934401A093E1
:100B00004501B0934601BF91AF919F918F913F9165
:100B10002F910F900FBE0F901F90189526E8230F6E
:100B20000296A11DB11DD2CF0F931F93CF93E7E47F
:100B3000F1E01382128288EE93E0A0E0B0E08483BB
:100B40009583A683B78384E091E09183808385ECCD
:100B500090E09587848784EC90E09787868780EC87
:100B600090E0918B808B81EC90E0938B828B82EC78
:100B700090E0958B848B86EC90E0978B868B118E22
:100B8000128E138E148EECEFF1E01382128206E1C6
:100B900011E0118300838DE08483CFEFC5838CE067
:100BA00086838BE087838AE0808789E0818788E07D
:100BB00082871386148615861686178661E0CF0114
:100BC0000E945904E4EEF1E0138212821183008343
:100BD00087E08483C58386E0868385E0878384E01D
:100BE000808783E0818782E082871386148615865A
:100BF0001686178661E0CF01CF911F910F910C945B
:100C00005904789484B5826084BD84B5816084BDC4
:100C100085B5826085BD85B5816085BD80916E009A
:100C2000816080936E0010928100809181008260CB
:100C30008093810080918100816080938100809108
:100C400080008160809380008091B10084608093F7
:100C5000B1008091B00081608093B00080917A00F3
:100C6000846080937A0080917A00826080937A0019
:100C700080917A00816080937A0080917A00806808
:100C800080937A001092C100E0915701F0915801D1
:100C900082E08083E0915301F09154011082E09151
:100CA0005501F09156018FEC808310925F01E09125
:100CB0005B01F0915C0186E08083E0915901F09145
:100CC0005A01808180618083E0915901F0915A013D
:100CD000808188608083E0915901F0915A01808180
:100CE00080688083E0915901F0915A0180818F7D65
:100CF000808362E08CEF91E00E9459048CEF91E0D8
:100D00000E94500462E084EE91E00E94590484EE57
:100D100091E00E94500400E010E081E10E94FF0198
:100D2000EC016AE271E084EE91E00E947302BE0180
:100D3000DD0F880B990B0E94280820E030E040E886
:100D40005AE30E94DD0820E030E040EA50E40E94CF
:100D5000DD0820E030E04AE754E40E94DD0820E0AE
:100D600030E040E251E40E948507AB01BC0122E083
:100D700084EE91E00E94650361E371E084EE91E00E
:100D80000E94730264E371E084EE91E00E947302BA
:100D90000E94390280E10E94FF01EC0167E371E0EB
:100DA0008CEF91E00E947302BE01DD0F880B990B5E
:100DB0000E94280820E030E040E85AE30E94DD0865
:100DC00020E030E040EA50E40E94DD0820E030E01E
:100DD0004AE754E40E94DD0820E030E040E251E4BC
:100DE0000E948507AB01BC0122E08CEF91E00E94DC
:100DF000650361E371E08CEF91E00E94730264E3AC
:100E000071E08CEF91E00E9473020E94390201159B
:100E1000110509F482CF0E941001882309F47DCFC7
:100E20000E9400007ACF5058BB27AA270E942B07A8
:100E30000C949E080E94900838F00E94970820F0B9
:100E400039F49F3F19F426F40C948D080EF4E095C4
:100E5000E7FB0C948708E92F0E94AF0858F3BA17F4
:100E6000620773078407950720F079F4A6F50C94C0
:100E7000D1080EF4E0950B2EBA2FA02D0B01B9016D
:100E800090010C01CA01A0011124FF27591B99F000
:100E9000593F50F4503E68F11A16F040A22F232F0C
:100EA000342F4427585FF3CF469537952795A7955C
:100EB000F0405395C9F77EF41F16BA0B620B730B03
:100EC000840BBAF09150A1F0FF0FBB1F661F771F74
:100ED000881FC2F70EC0BA0F621F731F841F48F429
:100EE000879577956795B795F7959E3F08F0B0CFB2
:100EF0009395880F08F09927EE0F97958795089599
:100F00000E94630808F481E008950E9499070C94F8
:100F10009E080E94970858F00E94900840F029F41B
:100F20005F3F29F00C94870851110C94D2080C945F
:100F30008D080E94AF0868F39923B1F3552391F30C
:100F4000951B550BBB27AA2762177307840738F038
:100F50009F5F5F4F220F331F441FAA1FA9F335D095
:100F60000E2E3AF0E0E832D091505040E695001C49
:100F7000CAF72BD0FE2F29D0660F771F881FBB1F03
:100F8000261737074807AB07B0E809F0BB0B802DE1
:100F9000BF01FF2793585F4F3AF09E3F510578F00D
:100FA0000C9487080C94D2085F3FE4F3983ED4F386
:100FB000869577956795B795F7959F5FC9F7880FE1
:100FC000911D9695879597F90895E1E0660F771F33
:100FD000881FBB1F621773078407BA0720F0621BC4
:100FE000730B840BBA0BEE1F88F7E09508950E94EF
:100FF000B70888F09F5798F0B92F9927B751B0F0EC
:10100000E1F0660F771F881F991F1AF0BA95C9F78C
:1010100014C0B13091F00E94D108B1E008950C9451
:10102000D108672F782F8827B85F39F0B93FCCF304
:10103000869577956795B395D9F73EF49095809509
:10104000709561957F4F8F4F9F4F0895E89409C029
:1010500097FB3EF490958095709561957F4F8F4FEB
:101060009F4F9923A9F0F92F96E9BB279395F69501
:10107000879577956795B795F111F8CFFAF4BB0F7F
:1010800011F460FF1BC06F5F7F4F8F4F9F4F16C0E3
:10109000882311F096E911C0772321F09EE8872F6D
:1010A000762F05C0662371F096E8862F70E060E029
:1010B0002AF09A95660F771F881FDAF7880F9695A2
:1010C000879597F90895990F0008550FAA0BE0E846
:1010D000FEEF16161706E807F907C0F012161306FA
:1010E000E407F50798F0621B730B840B950B39F43A
:1010F0000A2661F0232B242B252B21F408950A26A0
:1011000009F4A140A6958FEF811D811D089597F9DF
:101110009F6780E870E060E008959FEF80EC08959D
:1011200000240A94161617061806090608950024C6
:101130000A9412161306140605060895092E039440
:10114000000C11F4882352F0BB0F40F4BF2B11F4B4
:1011500060FF04C06F5F7F4F8F4F9F4F089557FD13
:101160009058440F551F59F05F3F71F04795880F15
:1011700097FB991F61F09F3F79F0879508951216AC
:1011800013061406551FF2CF4695F1DF08C0161658
:1011900017061806991FF1CF869571056105089409
:1011A0000895E894BB2766277727CB0197F9089520
:1011B0000E94630808F48FEF08950E94F0080C94D1
:1011C0009E080E94900838F00E94970820F095230E
:1011D00011F00C9487080C948D0811240C94D208FB
:1011E0000E94AF0870F3959FC1F3950F50E0551F13
:1011F000629FF001729FBB27F00DB11D639FAA276C
:10120000F00DB11DAA1F649F6627B00DA11D661FBA
:10121000829F2227B00DA11D621F739FB00DA11DDB
:10122000621F839FA00D611D221F749F3327A00D95
:10123000611D231F849F600D211D822F762F6A2F31
:1012400011249F5750409AF0F1F088234AF0EE0F96
:10125000FF1FBB1F661F771F881F91505040A9F7C3
:101260009E3F510580F00C9487080C94D2085F3F94
:10127000E4F3983ED4F3869577956795B795F795FF
:10128000E7959F5FC1F7FE2B880F911D9695879577
:1012900097F908950E946308880B990B0895A1E2BD
:1012A0001A2EAA1BBB1BFD010DC0AA1FBB1FEE1FE0
:1012B000FF1FA217B307E407F50720F0A21BB30B2B
:1012C000E40BF50B661F771F881F991F1A9469F7A7
:1012D00060957095809590959B01AC01BD01CF0103
:1012E0000895EE0FFF1F0590F491E02D0994F894F6
:0212F000FFCF2E
:1012F200000000004601A600D30093010401E200B1
:10130200F600000000005F03A60070026F026E612B
:101312006E00696E66006F766600504F4F4C3D203E
:0E132200002A43000D0A004149523D20000000
:00000001FF
