:100000000C9462000C948A000C948A000C948A0070
:100010000C948A000C948A000C948A000C948A0038
:100020000C948A000C948A000C948A000C948A0028
:100030000C948A000C948A000C948A000C948A0018
:100040000C944B030C948A000C9419030C94F30247
:100050000C948A000C948A000C948A000C948A00F8
:100060000C948A000C948A000000000024002700F1
:100070002A0000000000250028002B0000000000DE
:1000800023002600290004040404040404040202DA
:100090000202020203030303030301020408102007
:1000A0004080010204081020010204081020000012
:1000B0000008000201000003040700000000000027
:1000C0000000950311241FBECFEFD8E0DEBFCDBFE7
:1000D00011E0A0E0B1E0E8EFFBE002C005900D9276
:1000E000A833B107D9F722E0A8E3B1E001C01D921F
:1000F000AD34B207E1F710E0C2E6D0E004C02197CA
:10010000FE010E94F405C136D107C9F70E942204FE
:100110000C94FA050C94000096E0899FD0011124FC
:10012000A252BE4F90967C936E935F9791E091960A
:100130009C939197E0914B02F0914C0290914A026E
:10014000992339F0309751F0811108C08091FA015C
:100150000994309719F05C968C91FACF0895CF925C
:10016000DF92EF92FF920F931F9396E0899FF00129
:100170001124E252FE4F11A2278D30A1213031050A
:1001800051F178F02230310509F451C023303105A6
:1001900009F452C01F910F91FF90EF90DF90CF9024
:1001A00008956623B9F361E070E00E948C002FB7D8
:1001B000F89480913D0190913E01A0913F01B09152
:1001C00040012FBF8093360290933702A0933802EC
:1001D000B0933902DFCF9FB7F894C0903D01D09023
:1001E0003E01E0903F01F09040019FBF0091360238
:1001F000109137022091380230913902C01AD10A89
:10020000E20AF30A009148021091490230E020E02E
:100210000C151D052E053F0550F462E070E01F919E
:100220000F91FF90EF90DF90CF900C948C006111B4
:10023000B1CF63E070E0F3CF70E060E0F0CFAF9259
:10024000BF92CF92DF92EF92FF920F931F93CF93C3
:10025000DF936C017B018B01040F151FEB015E0125
:10026000AE18BF08C017D10759F06991D601ED91BA
:10027000FC910190F081E02DC6010995892B79F759
:10028000C501DF91CF911F910F91FF90EF90DF900B
:10029000CF90BF90AF900895FC01538D448D252FD2
:1002A00030E0842F90E0821B930B541710F0CF9610
:1002B000089501970895FC01918D828D981761F042
:1002C000A28DAE0FBF2FB11D5D968C91928D9F5F59
:1002D0009F73928F90E008958FEF9FEF0895FC0138
:1002E000918D828D981731F0828DE80FF11D858DEB
:1002F00090E008958FEF9FEF0895FC01918D228D7E
:10030000892F90E0805C9F4F821B91098F73992702
:10031000089581E491E00E947D0121E0892B09F498
:1003200020E0822F089580E090E0892B29F00E9440
:10033000890181110C9400000895FC01A48DA80F7F
:10034000B92FB11DA35ABF4F2C91848D90E0019617
:100350008F739927848FA689B7892C93A089B18937
:100360008C91837080648C93938D848D981306C0D8
:100370000288F389E02D80818F7D80830895EF923C
:10038000FF920F931F93CF93DF93EC0181E0888F4F
:100390009B8D8C8D98131AC0E889F989808185FF1F
:1003A00015C09FB7F894EE89FF896083E889F989C1
:1003B00080818370806480839FBF81E090E0DF91C3
:1003C000CF911F910F91FF90EF900895F62E0B8D16
:1003D00010E00F5F1F4F0F731127E02E8C8D8E11D1
:1003E0000CC00FB607FCFACFE889F989808185FF38
:1003F000F5CFCE010E949D01F1CFEB8DEC0FFD2FCB
:10040000F11DE35AFF4FF0829FB7F8940B8FEA89F2
:10041000FB8980818062CFCFCF93DF93EC01888D01
:100420008823B9F0AA89BB89E889F9898C9185FD6F
:1004300003C0808186FD0DC00FB607FCF7CF8C91FD
:1004400085FFF2CF808185FFEDCFCE010E949D0117
:10045000E9CFDF91CF910895833081F028F4813086
:1004600099F08230A9F008958730A9F08830C9F05A
:100470008430B1F4809180008F7D03C08091800032
:100480008F7780938000089584B58F7784BD089519
:1004900084B58F7DFBCF8091B0008F778093B000C3
:1004A00008958091B0008F7DF9CFCF93DF93282FEF
:1004B00030E0F901E255FF4F8491F901E656FF4F14
:1004C000D491F901EA57FF4FC491CC23A1F08111D7
:1004D0000E942C02EC2FF0E0EE0FFF1FE458FF4FBC
:1004E000A591B491EC91ED2381E090E009F480E0D6
:1004F000DF91CF91089580E090E0FACF862F0C94A1
:1005000055021F93CF93DF93282F30E0F901E25576
:10051000FF4F8491F901E656FF4FD491F901EA5754
:10052000FF4FC491CC23A9F0162F81110E942C02F9
:10053000EC2FF0E0EE0FFF1FEE58FF4FA591B491A6
:100540008FB7F894EC91111108C0D095DE23DC939D
:100550008FBFDF91CF911F910895DE2BF8CF862FAB
:10056000642F0C948102CF93DF9390E0FC01E65658
:10057000FF4F24918A579F4FFC0184918823C9F033
:1005800090E0880F991FFC01E859FF4FA591B491A5
:10059000FC01EE58FF4FC591D49161110DC09FB77A
:1005A000F8948C91209582238C938881282328832A
:1005B0009FBFDF91CF910895623051F49FB7F894B7
:1005C0003C91822F809583238C93E8812E2BEFCF53
:1005D0008FB7F894EC912E2B2C938FBFEACF862FF8
:1005E000642F0C94B3021F920F920FB60F92112436
:1005F0002F933F934F935F936F937F938F939F932B
:10060000AF93BF93EF93FF9381E491E00E949D012C
:10061000FF91EF91BF91AF919F918F917F916F91DA
:100620005F914F913F912F910F900FBE0F901F90B0
:1006300018951F920F920FB60F9211242F938F933C
:100640009F93EF93FF93E0915101F09152018081CC
:10065000E0915701F091580182FD1BC0908180917B
:100660005A018F5F8F7320915B01821741F0E091F7
:100670005A01F0E0EF5BFE4F958F80935A01FF9196
:10068000EF919F918F912F910F900FBE0F901F9020
:1006900018958081F4CF1F920F920FB60F921124FC
:1006A0002F933F938F939F93AF93BF9380913D017F
:1006B00090913E01A0913F01B091400130913C01E9
:1006C00023E0230F2D3758F50196A11DB11D20936E
:1006D0003C0180933D0190933E01A0933F01B09374
:1006E00040018091380190913901A0913A01B09177
:1006F0003B010196A11DB11D8093380190933901F2
:10070000A0933A01B0933B01BF91AF919F918F911C
:100710003F912F910F900FBE0F901F90189526E8D4
:10072000230F0296A11DB11DD2CF10924401109249
:10073000430188EE93E0A0E0B0E080934501909300
:100740004601A0934701B09348018CE191E090935A
:1007500042018093410185EC90E090934E0180939B
:100760004D0184EC90E09093500180934F0180EC18
:1007700090E0909352018093510181EC90E090932E
:1007800054018093530182EC90E090935601809342
:10079000550186EC90E09093580180935701109298
:1007A0005A0110925B0110925C0110925D0110924F
:1007B000E0011092E4011092E3011092E5018EE253
:1007C00091E09093DF018093DE01EAEFF1E0108287
:1007D000148213821582369682E0E633F807B9F761
:1007E00084E091E0909341028093400280E091E0A8
:1007F000909343028093420284E08093440280936A
:10080000450288E091E090933F0280933E028AE0A7
:1008100090E0909347028093460284EF91E090939A
:1008200049028093480210924C0210924B0210929F
:100830003A0210923B0210923C0210923D0210923A
:100840004A020895789484B5826084BD84B581603D
:1008500084BD85B5826085BD85B5816085BD80918B
:100860006E00816080936E00109281008091810003
:1008700082608093810080918100816080938100FB
:10088000809180008160809380008091B1008460BD
:100890008093B1008091B00081608093B00080911E
:1008A0007A00846080937A0080917A0082608093DD
:1008B0007A0080917A00816080937A0080917A003A
:1008C000806880937A001092C100E0915101F0910C
:1008D000520182E08083E0914D01F0914E0110823F
:1008E000E0914F01F09150018FEC808310925901FB
:1008F000E0915501F091560186E08083E09153012B
:10090000F0915401808180618083E0915301F091E6
:100910005401808188608083E0915301F0915401FB
:10092000808180688083E0915301F091540180813F
:100930008F7D8083412C512C3201439422242A94B0
:10094000322C50E0C52E50E0D52E51E050934A0293
:100950008FB7F89440913D0150913E0160913F0165
:10096000709140018FBF80913A0290913B02A0911B
:100970003C02B0913D02481B590B6A0B7B0B8091E6
:10098000460290914702B0E0A0E084179507A607C1
:10099000B70708F017C1C0E080914402C81760F49F
:1009A000E0914002F0914102EC0FF11D62E0808184
:1009B0000E94B302CF5FF0CF912C80914502981630
:1009C00008F05FC0092D10E0E0914202F09143026F
:1009D000E00FF11F61E080810E94B302E0914202CA
:1009E000F0914302E00FF11F60E080810E948102DC
:1009F000D301C201092C04C0880F991FAA1FBB1F75
:100A00000A94D2F75C017C01E094F094812C8091EF
:100A100044028816F8F4C82DD0E0E0914002F0912D
:100A20004102EC0FFD1F80810E9455022496CC0FDD
:100A3000DD1FC252DE4F892B41F4888199818A29BA
:100A40009B29998388838394E2CF888199818E2121
:100A50009F21F7CFE0914202F0914302E00FF11F96
:100A600061E080810E948102809142029091430264
:100A7000080F191F60E0F80180810E94B30293946F
:100A80009CCFCEEDD1E0FE01878D90A1892B21F482
:100A9000148E368E258E11A2369652E0EA31F50775
:100AA00099F710E080914402181708F053C000E055
:100AB000E12EF12CEE0CFF1CC7018A519E4F7C01E8
:100AC00020914502021708F043C0F701608171814F
:100AD000002E02C0769567950A94E2F7129F900166
:100AE0001124200F311DEEEDF1E080E0458D568D93
:100AF0002417350709F476C08F5F36968A30B1F730
:100B000060FF24C0EEEDF1E090E080E0448D411103
:100B100018C0E0913E02F0913F02E20FF31F4081C6
:100B200056E0589FF001599FF00D1124E252FE4FFC
:100B3000448F368F258F10A2178E61E00E94AF0080
:100B400005C0019636968A30910501F70F5FB8CF40
:100B50001F5FA8CF80E099A19111892F269692E07E
:100B6000CA31D907C1F79FB7F89440913D01509120
:100B70003E0160913F01709140019FBF40933A0256
:100B800050933B0260933C0270933D028823D1F066
:100B90008091FF018823B1F08091FD019091FE01C9
:100BA000019781F46091FA0161110FC0C114D10461
:100BB00009F4CBCE0E948901882309F4C6CE0E9495
:100BC0000000C3CE10924A02F1CF81E491E00E946E
:100BD000BF0142E050E064E371E081E491E00E94F3
:100BE0001F01E4CF6170AACFEE0FFF1F0590F491B3
:080BF000E02D0994F894FFCFF9
:100BF80006070809020304053738394134353642F7
:100C0800313233432A30234400000000BF011F0162
:100C18004C010C027D015B016F0100000000EF0236
:080C2800AF027E020D0A00007C
:00000001FF
