:100000000C9462000C948A000C948A000C948A0070
:100010000C948A000C948A000C948A000C948A0038
:100020000C948A000C948A000C948A000C948A0028
:100030000C948A000C948A000C948A000C948A0018
:100040000C9402050C948A000C948A000C948A008B
:100050000C948A000C948A000C948A000C948A00F8
:100060000C948A000C948A000000000024002700F1
:100070002A0000000000250028002B0000000000DE
:1000800023002600290004040404040404040202DA
:100090000202020203030303030301020408102007
:1000A0004080010204081020010204081020000012
:1000B0000008000201000003040700000000000027
:1000C0000000890611241FBECFEFD8E0DEBFCDBFF0
:1000D00011E0A0E0B1E0EAE1F2E102C005900D928A
:1000E000A836B107D9F721E0A8E6B1E001C01D921A
:1000F000A339B207E1F710E0C2E6D0E004C02197CF
:10010000FE010E940509C136D107C9F70E944C05BE
:100110000C940B090C940000833081F028F481309A
:1001200099F08230A9F008958730A9F08830C9F09D
:100130008430B1F4809180008F7D03C08091800075
:100140008F7780938000089584B58F7784BD08955C
:1001500084B58F7DFBCF8091B0008F778093B00006
:1001600008958091B0008F7DF9CFCF93DF93ECEBB2
:10017000F0E08491E8EAF0E0D491E4E9F0E0C491A1
:10018000CC23A1F081110E948C00EC2FF0E0EE0F47
:10019000FF1FE458FF4FA591B491EC91ED2381E04E
:1001A00090E009F480E0DF91CF91089580E090E045
:1001B000FACF1F93CF93DF93282F30E0F901E25558
:1001C000FF4F8491F901E656FF4FD491F901EA57A8
:1001D000FF4FC491CC23A9F0162F81110E948C00EF
:1001E000EC2FF0E0EE0FFF1FEE58FF4FA591B491FA
:1001F0008FB7F894EC91111108C0D095DE23DC93F1
:100200008FBFDF91CF911F910895DE2BF8CFCF9351
:10021000DF9390E0FC01E656FF4F24918A579F4FF1
:10022000FC0184918823D1F090E0880F991FFC0194
:10023000E859FF4FA591B491FC01EE58FF4FC591CD
:10024000D49161110EC09FB7F8948C91E22FE09584
:100250008E238C932881E223E8839FBFDF91CF9187
:1002600008958FB7F894EC91E22BEC938FBFF6CF03
:100270003FB7F8948091770190917801A09179012E
:10028000B0917A0126B5A89B05C02F3F19F00196C1
:10029000A11DB11D3FBFBA2FA92F982F8827BC01E0
:1002A000CD01620F711D811D911D42E0660F771F08
:1002B000881F991F4A95D1F708958F929F92AF9208
:1002C000BF92CF92DF92EF92FF924B015C010E94AE
:1002D00038016B017C010E9438016C197D098E097F
:1002E0009F09683E734081059105A8F321E0821AB9
:1002F0009108A108B10888EEC80E83E0D81EE11C61
:10030000F11C81149104A104B10429F7FF90EF902E
:10031000DF90CF90BF90AF909F908F900895AF9255
:10032000BF92CF92DF92EF92FF920F931F93CF93E2
:10033000DF936C017B018B01040F151FEB015E0144
:10034000AE18BF08C017D10759F06991D601ED91D9
:10035000FC910190F081E02DC6010995892B79F778
:10036000C501DF91CF911F910F91FF90EF90DF902A
:10037000CF90BF90AF900895089590E080E00895E9
:100380004F925F926F927F92AF92BF92CF92DF9225
:10039000EF92FF920F931F93CF93C0E010E000E025
:1003A00083E0E82EF12C9FE0C92ED12C2BE8A22E61
:1003B000BB24B394412C512C3201439460E08EE075
:1003C0000E94D90061E08EE00E940701C7010197F9
:1003D000F1F760E08EE00E940701C6010197F1F796
:1003E0000E94B500F5013197F1F7B301A201002E8B
:1003F00004C0440F551F661F771F0A94D2F7892B3C
:10040000A9F0C42B0F5F1F4F08301105B9F68C2FD0
:10041000CF911F910F91FF90EF90DF90CF90BF9001
:10042000AF907F906F905F904F9008954095C42358
:10043000E9CFCF92DF92EF92FF920F931F93CF936A
:10044000DF93D0E0C0E093E0E92EF12C082F10E01C
:100450002BE3C22EDD24D39460E08EE00E94D9000D
:1004600061E08EE00E940701C7010197F1F7B80132
:100470000C2E02C0759567950A94E2F761708EE0C4
:100480000E94D900C6010197F1F760E08EE00E945A
:100490000701C7010197F1F72196C830D105E1F6B0
:1004A000DF91CF911F910F91FF90EF90DF90CF9050
:1004B000089560E08EE00E94D90061E08EE00E9425
:1004C00007018BEC97E00197F1F760E08EE00E9466
:1004D00007018BE891E00197F1F70E94B500892BA5
:1004E00031F48BE396E00197F1F781E0089580E025
:1004F0000895FC0101900020E9F73197AF01481BF6
:10050000590BBC018BE791E00C948F018F929F9265
:10051000AF92BF920F931F93CF93DF93CDB7DEB708
:10052000A1970FB6F894DEBF0FBECDBF19A242301F
:1005300008F44AE08E010F5D1F4F842E912CB12CE0
:10054000A12CA50194010E94E308E62FB901CA017C
:10055000EA30F4F4E05DD801EE938D01232B242BD7
:10056000252B79F790E080E0109719F0CD010E94DB
:100570007902A1960FB6F894DEBF0FBECDBFDF9112
:10058000CF911F910F91BF90AF909F908F90089542
:10059000E95CE1CFCF93DF93EC0160E08E810E94B4
:1005A000D90061E08E810E94D90060E08E810E94B6
:1005B000D9008BE891E00197F1F7DF91CF91089591
:1005C000CF92DF92EF92FF920F931F93CF93DF931F
:1005D0006C017C0187E0E80EF11CD0E0C0E0062F42
:1005E00010E0B8010C2E02C0759567950A94E2F7E9
:1005F0006170F70181917F010E94D9002196C4307A
:10060000D10579F7C601DF91CF911F910F91FF902E
:10061000EF90DF90CF900C94CA02CF92DF92EF92CE
:10062000FF920F931F93CF93DF93EC01F62E642F6D
:100630008C810E94D9008D818F3F19F060E00E946B
:10064000D9000F2D10E08F8584FF25C06E0187E053
:10065000C80ED11CF12CE12CB8010E2C02C07595EE
:1006600067950A94E2F76170F60181916F010E942B
:10067000D900FFEFEF1AFF0A88E0E816F10461F7EE
:10068000CE01DF91CF911F910F91FF90EF90DF90FE
:10069000CF900C94CA02B80184E0759567958A954D
:1006A000E1F7CE010E94E0026F2DCE01DF91CF91E4
:1006B0001F910F91FF90EF90DF90CF900C94E0028C
:1006C00040E0682F8BE791E00C940D0381E00E94DD
:1006D00060038BE39FE10197F1F70895CF93DF93D8
:1006E000823029F490918A01986090938A018093D6
:1006F0008E0110928F0180E48093900180E18093BD
:10070000910180E58093920161E080917F010E94D8
:100710000701809180018F3F19F061E00E9407017D
:1007200061E0809181010E940701CBE7D1E09E0149
:100730002B57314080918A0184FD0BC084E090E00A
:1007400021962817390744F461E08E810E94070141
:10075000EECF88E090E0F4CF8BE39DE00197F1F7D6
:1007600060E080917F010E94D90060E0809181016A
:100770000E94D900809180018F3F19F060E00E94B3
:10078000D90080918A0184FD34C063E08BE791E059
:100790000E94E002CBE4D6E4CE010197F1F763E0DA
:1007A0008BE791E00E94E0022197F1F763E08BE78D
:1007B00091E00E94E00283E592E00197F1F762E0A8
:1007C0008BE791E00E94E00280918A0180620E94A2
:1007D000600384E080938B018CE00E9460030E94A0
:1007E000660382E080938C0186E0DF91CF910C94C8
:1007F000600380620E9460038BE496E40197F1F746
:1008000080918A0180620E94600383E592E00197F3
:10081000F1F780918A0180620E946003D5CF9091A8
:100820008E01691710F06FEF690FE62FF0E0E558C1
:10083000FE4F9489890F80680C94600341E00E9408
:100840000D0381E090E008954F925F926F927F9246
:100850008F929F92AF92BF92CF92DF92EF92FF92D0
:100860000F931F93CF936B017C01742EAC019B01FE
:100870000E94DE08882399F08CE091E0CF911F91CF
:100880000F91FF90EF90DF90CF90BF90AF909F902F
:100890008F907F906F905F904F900C9479024601FB
:1008A0005701E894B7F82FEF3FEF4FE75FE7C50137
:1008B000B4010E94DE0881110DC02FEF3FEF4FE71A
:1008C0005FE7C501B4010E94140718161CF480E10B
:1008D00091E0D4CF2FEF3FEF4FE75FE4C701B601C0
:1008E0000E946C0818161CF484E191E0C7CF2FEF2A
:1008F0003FEF4FE75FECC701B6010E94140787FD89
:10090000F3CF20E030E0A901C701B6010E9414072F
:1009100010E000E087FF0CC041E06DE28BE791E062
:100920000E940D03F7FAF094F7F8F09401E010E05C
:10093000C0E060E070E080E09FE37C1641F020E0E2
:1009400030E040E251E40E941907CF5FF6CFA701E3
:1009500096010E94A8064B015C010E948B072B01A7
:100960003C014AE00E948602080F191FCC23C9F1FE
:10097000C301B2010E94BA079B01AC01C501B401D9
:100980000E94A7064B015C0141E06EE28BE791E01B
:100990000E940D030F5F1F4FC15018F120E030E09F
:1009A00040E251E4C501B4010E9471082B013C01F1
:1009B0000E948B074B01B12CA12C4AE0C501B40168
:1009C0000E948602080F191FC501B4010E94BA07D0
:1009D0009B01AC01C301B2010E94A7064B015C015F
:1009E000DBCFC801CF911F910F91FF90EF90DF9067
:1009F000CF90BF90AF909F908F907F906F905F90BF
:100A00004F9008951F920F920FB60F9211242F93BB
:100A10003F938F939F93AF93BF9380917301909176
:100A20007401A0917501B09176013091720123E0BB
:100A3000230F2D3758F50196A11DB11D209372018A
:100A40008093730190937401A0937501B093760124
:100A50008091770190917801A0917901B0917A010C
:100A60000196A11DB11D8093770190937801A09309
:100A70007901B0937A01BF91AF919F918F913F918E
:100A80002F910F900FBE0F901F90189526E8230FFF
:100A90000296A11DB11DD2CF789484B5826084BD29
:100AA00084B5816084BD85B5826085BD85B5816072
:100AB00085BD80916E00816080936E0010928100F0
:100AC00080918100826080938100809181008160AB
:100AD000809381008091800081608093800080916C
:100AE000B10084608093B1008091B00081608093F8
:100AF000B00080917A00846080937A0080917A00BF
:100B0000826080937A0080917A00816080937A007D
:100B100080917A00806880937A001092C10061E031
:100B200089E00E94070161E088E00E94070161E01E
:100B30008DE00E94070182E00E946E030E9466031E
:100B400060E080E00E940F0488E191E00E94790259
:100B500061E080E00E940F048BE291E00E94790244
:100B600060ED77E080E090E00E945D010E94660306
:100B7000C0E0D0E060E080E00E940F048CE391E0F0
:100B80000E9479020E945902882309F4B3C08CECB8
:100B90000E94190284E40E9419020E94C001882365
:100BA000E1F30E945902882309F4A4C08CEC0E944E
:100BB00019028EEB0E9419020E94C00190E09093EE
:100BC0007101809370010E94C00160917001709169
:100BD0007101782B7093710160937001072E000CE6
:100BE000880B990B0E94BC0720E030E040E85DE3F1
:100BF0000E9471086B017C01C0926C01D0926D0162
:100C0000E0926E01F0926F0120E030E040E151E4AB
:100C10000E94710820E030E040EA50E40E94190789
:100C200020E030E040E052E40E94A80660936801B2
:100C30007093690180936A0190936B0161E080E099
:100C40000E940F0441E0C701B6010E9424046FED29
:100C50008BE791E00E941E048DE491E00E947902EE
:100C600061E089E00E940F04609168017091690160
:100C700080916A0190916B0141E00E9424046FED24
:100C80008BE791E00E941E0482E591E00E947902C8
:100C900020E030E048EC52E4609168017091690115
:100CA00080916A0190916B010E946C0861E01816B6
:100CB00044F58DE00E94D90060E088E00E94D900F0
:100CC00061E089E00E94D9006CE271E080E090E090
:100CD0000E945D0160E08DE00E94D90064EF71E048
:100CE00080E090E00E945D01209709F443CF0E94CC
:100CF000000040CF61E080E00E940F0486E591E0B3
:100D0000C5CF88E00E94D90060E089E00E94D90048
:100D1000E1CFEBE7F1E01382128284E091E091836E
:100D2000808382E084838FEF858383E0868384E001
:100D3000878385E0808786E0818787E082871386C6
:100D4000148615861686178681E00C946E0350581B
:100D5000BB27AA270E94BF060C9432080E942408D1
:100D600038F00E942B0820F039F49F3F19F426F444
:100D70000C9421080EF4E095E7FB0C941B08E92F76
:100D80000E94430858F3BA17620773078407950750
:100D900020F079F4A6F50C9465080EF4E0950B2E7E
:100DA000BA2FA02D0B01B90190010C01CA01A001BD
:100DB0001124FF27591B99F0593F50F4503E68F118
:100DC0001A16F040A22F232F342F4427585FF3CF59
:100DD000469537952795A795F0405395C9F77EF42A
:100DE0001F16BA0B620B730B840BBAF09150A1F073
:100DF000FF0FBB1F661F771F881FC2F70EC0BA0FF9
:100E0000621F731F841F48F4879577956795B79580
:100E1000F7959E3F08F0B0CF9395880F08F099277B
:100E2000EE0F9795879508950E94F70708F481E0E3
:100E300008950E942D070C9432080E942B0858F048
:100E40000E94240840F029F45F3F29F00C941B080D
:100E500051110C9466080C9421080E94430868F311
:100E60009923B1F3552391F3951B550BBB27AA2763
:100E700062177307840738F09F5F5F4F220F331F9D
:100E8000441FAA1FA9F335D00E2E3AF0E0E832D065
:100E900091505040E695001CCAF72BD0FE2F29D068
:100EA000660F771F881FBB1F261737074807AB073A
:100EB000B0E809F0BB0B802DBF01FF2793585F4FAF
:100EC0003AF09E3F510578F00C941B080C9466088C
:100ED0005F3FE4F3983ED4F3869577956795B79591
:100EE000F7959F5FC9F7880F911D9695879597F99C
:100EF0000895E1E0660F771F881FBB1F6217730715
:100F00008407BA0720F0621B730B840BBA0BEE1F29
:100F100088F7E09508950E944B0888F09F5798F055
:100F2000B92F9927B751B0F0E1F0660F771F881FEE
:100F3000991F1AF0BA95C9F714C0B13091F00E9408
:100F40006508B1E008950C946508672F782F88270D
:100F5000B85F39F0B93FCCF3869577956795B3952F
:100F6000D9F73EF490958095709561957F4F8F4F9E
:100F70009F4F0895E89409C097FB3EF490958095A3
:100F8000709561957F4F8F4F9F4F9923A9F0F92F4F
:100F900096E9BB279395F695879577956795B795CD
:100FA000F111F8CFFAF4BB0F11F460FF1BC06F5FB3
:100FB0007F4F8F4F9F4F16C0882311F096E911C0C5
:100FC000772321F09EE8872F762F05C0662371F0E6
:100FD00096E8862F70E060E02AF09A95660F771FFA
:100FE000881FDAF7880F9695879597F90895990FD6
:100FF0000008550FAA0BE0E8FEEF16161706E807E3
:10100000F907C0F012161306E407F50798F0621B03
:10101000730B840B950B39F40A2661F0232B242BD8
:10102000252B21F408950A2609F4A140A6958FEFF7
:10103000811D811D089597F99F6780E870E060E049
:1010400008959FEF80EC089500240A941616170661
:1010500018060906089500240A94121613061406A9
:1010600005060895092E0394000C11F4882352F00C
:10107000BB0F40F4BF2B11F460FF04C06F5F7F4FC4
:101080008F4F9F4F089557FD9058440F551F59F0AB
:101090005F3F71F04795880F97FB991F61F09F3F65
:1010A00079F087950895121613061406551FF2CF8E
:1010B0004695F1DF08C0161617061806991FF1CFDE
:1010C00086957105610508940895E894BB27662705
:1010D0007727CB0197F908950E94F70708F48FEF5F
:1010E00008950E9484080C9432080E94240838F065
:1010F0000E942B0820F0952311F00C941B080C94EF
:10110000210811240C9466080E94430870F3959FEF
:10111000C1F3950F50E0551F629FF001729FBB27EE
:10112000F00DB11D639FAA27F00DB11DAA1F649F8A
:101130006627B00DA11D661F829F2227B00DA11D3D
:10114000621F739FB00DA11D621F839FA00D611DC3
:10115000221F749F3327A00D611D231F849F600DE4
:10116000211D822F762F6A2F11249F5750409AF00D
:10117000F1F088234AF0EE0FFF1FBB1F661F771F99
:10118000881F91505040A9F79E3F510580F00C9464
:101190001B080C9466085F3FE4F3983ED4F38695F1
:1011A00077956795B795F795E7959F5FC1F7FE2B04
:1011B000880F911D9695879597F908950E94F707D6
:1011C000880B990B0895A1E21A2EAA1BBB1BFD01E7
:1011D0000DC0AA1FBB1FEE1FFF1FA217B307E40716
:1011E000F50720F0A21BB30BE40BF50B661F771F6E
:1011F000881F991F1A9469F760957095809590954E
:101200009B01AC01BD01CF010895EE0FFF1F0590BA
:0A121000F491E02D0994F894FFCF4B
:10121A00000000001E048F01BD01BC016E616E005A
:10122A00696E66006F766600203120576972652004
:10123A00436F6D6D756E692E2E2000204453313830
:10124A004232302053656E736F722000202054653D
:10125A006D706572617475726520202000432020CC
:10126A0020004620200020202020204572726F7224
:08127A002120202020200000AB
:00000001FF
