:100000000C9462000C948A000C948A000C948A0070
:100010000C948A000C948A000C948A000C948A0038
:100020000C948A000C948A000C948A000C94E803C7
:100030000C948A000C948A000C948A000C948A0018
:100040000C9446030C948A000C94B6030C94900311
:100050000C948A000C948A000C948A000C948A00F8
:100060000C948A000C948A000000000024002700F1
:100070002A0000000000250028002B0000000000DE
:1000800023002600290004040404040404040202DA
:100090000202020203030303030301020408102007
:1000A0004080010204081020010204081020000012
:1000B0000008000201000003040700000000000027
:1000C0000000A40411241FBECFEFD8E0DEBFCDBFD7
:1000D00011E0A0E0B1E0E4ECFDE002C005900D927B
:1000E000A831B107D9F721E0A8E1B1E001C01D9224
:1000F000A73EB207E1F710E0C2E6D0E004C02197C6
:10010000FE010E94DA06C136D107C9F70E94010537
:100110000C94E0060C9400008F929F92AF92BF92D5
:10012000FF920F931F93CF93DF93F090E4012BE0A6
:100130002F1508F44CC02091E60108E512E0021BDF
:10014000110927FD1395000F111F000F111F20919A
:10015000E501C8E8D0E0C21BD10927FDD395CC0F3B
:10016000DD1FCC0FDD1F4E010D2E000CAA08BB08B1
:100170009801012E000C440B550B281939094A0926
:100180005B09DC010E94950624EB30E040E050E082
:100190000E946B06820E931EA41EB51E8C169D0631
:1001A0002CF0E801801691060CF4E4012297CC0FA4
:1001B000DD1F2FB7F8948F2D90E0FC01EE0FFF1F8D
:1001C000E80FF91FE154FE4FD283C1832FBFDF91A7
:1001D000CF911F910F91FF90BF90AF909F908F9004
:1001E0000895833081F028F4813099F08230A9F0AD
:1001F00008958730A9F08830C9F08430B1F4809137
:1002000080008F7D03C0809180008F778093800075
:10021000089584B58F7784BD089584B58F7DFBCF15
:100220008091B0008F778093B00008958091B000E6
:100230008F7DF9CFCF93DF93282F30E0F901E2557E
:10024000FF4F8491F901E656FF4FD491F901EA5727
:10025000FF4FC491CC23A1F081110E94F100EC2F3B
:10026000F0E0EE0FFF1FE458FF4FA591B491EC9121
:10027000ED2381E090E009F480E0DF91CF910895D3
:1002800080E090E0FACF1F93CF93DF93282F30E0E8
:10029000F901E255FF4F8491F901E656FF4FD491E1
:1002A000F901EA57FF4FC491CC23A9F0162F811111
:1002B0000E94F100EC2FF0E0EE0FFF1FEE58FF4F11
:1002C000A591B4918FB7F894EC91111108C0D09515
:1002D000DE23DC938FBFDF91CF911F910895DE2B3A
:1002E000F8CFCF93DF9390E0FC01E656FF4F2491C7
:1002F0008A579F4FFC0184918823D1F090E0880FAA
:10030000991FFC01E859FF4FA591B491FC01EE58EB
:10031000FF4FC591D49161110EC09FB7F8948C9195
:10032000E22FE0958E238C932881E223E8839FBF00
:10033000DF91CF9108958FB7F894EC91E22BEC9375
:100340008FBFF6CF3FB7F89480911E0190911F01A7
:10035000A0912001B091210126B5A89B05C02F3F97
:1003600019F00196A11DB11D3FBFBA2FA92F982FDB
:100370008827BC01CD01620F711D811D911D42E0D6
:10038000660F771F881F991F4A95D1F70895AF927E
:10039000BF92CF92DF92EF92FF920F931F93CF9372
:1003A000DF936C017B018B01040F151FEB015E01D4
:1003B000AE18BF08C017D10759F06991D601ED9169
:1003C000FC910190F081E02DC6010995892B79F708
:1003D000C501DF91CF911F910F91FF90EF90DF90BA
:1003E000CF90BF90AF900895FC01538D448D252F81
:1003F00030E0842F90E0821B930B541710F0CF96BF
:10040000089501970895FC01918D828D981761F0F0
:10041000A28DAE0FBF2FB11D5D968C91928D9F5F07
:100420009F73928F90E008958FEF9FEF0895FC01E6
:10043000918D828D981731F0828DE80FF11D858D99
:1004400090E008958FEF9FEF0895FC01918D228D2C
:10045000892F90E0805C9F4F821B91098F739927B1
:10046000089582E291E00E94250221E0892B09F49F
:1004700020E0822F089580E090E0892B29F00E94EF
:10048000310281110C9400000895FC01A48DA80F85
:10049000B92FB11DA35ABF4F2C91848D90E00196C6
:1004A0008F739927848FA689B7892C93A089B189E6
:1004B0008C91837080648C93938D848D981306C087
:1004C0000288F389E02D80818F7D80830895EF92EB
:1004D000FF920F931F93CF93DF93EC0181E0888FFE
:1004E0009B8D8C8D98131AC0E889F989808185FFCE
:1004F00015C09FB7F894EE89FF896083E889F98970
:1005000080818370806480839FBF81E090E0DF9171
:10051000CF911F910F91FF90EF900895F62E0B8DC4
:1005200010E00F5F1F4F0F731127E02E8C8D8E117F
:100530000CC00FB607FCFACFE889F989808185FFE6
:10054000F5CFCE010E944502F1CFEB8DEC0FFD2FD0
:10055000F11DE35AFF4FF0829FB7F8940B8FEA89A1
:10056000FB8980818062CFCFCF93DF93EC01888DB0
:100570008823B9F0AA89BB89E889F9898C9185FD1E
:1005800003C0808186FD0DC00FB607FCF7CF8C91AC
:1005900085FFF2CF808185FFEDCFCE010E9445021D
:1005A000E9CFDF91CF910895FC0101900020E9F798
:1005B0003197AF01481B590BBC0182E291E00C94CA
:1005C000C7018F929F92AF92BF920F931F93CF93C9
:1005D000DF93CDB7DEB7A1970FB6F894DEBF0FBE9D
:1005E000CDBF19A2423008F44AE08E010F5D1F4FC3
:1005F000842E912CB12CA12CA50194010E949D0662
:10060000E62FB901CA01EA30F4F4E05DD801EE93B7
:100610008D01232B242B252B79F790E080E0109778
:1006200019F0CD010E94D402A1960FB6F894DEBF56
:100630000FBECDBFDF91CF911F910F91BF90AF90B3
:100640009F908F900895E95CE1CFCF92DF92EF9277
:10065000FF92CF93DF936B017C016DE282E291E028
:100660000E946702EC0166277727CB016C197D0990
:100670008E099F094AE00E94E1028C0F9D1FDF91C5
:10068000CF91FF90EF90DF90CF9008951F920F923F
:100690000FB60F9211242F933F938F939F93AF9395
:1006A000BF9380911A0190911B01A0911C01B09100
:1006B0001D013091190123E0230F2D3758F50196C4
:1006C000A11DB11D2093190180931A0190931B0164
:1006D000A0931C01B0931D0180911E0190911F01F8
:1006E000A0912001B09121010196A11DB11D80931F
:1006F0001E0190931F01A0932001B0932101BF918F
:10070000AF919F918F913F912F910F900FBE0F90BE
:100710001F90189526E8230F0296A11DB11DD2CF78
:100720001F920F920FB60F9211242F933F934F9366
:100730005F936F937F938F939F93AF93BF93EF9349
:10074000FF9382E291E00E944502FF91EF91BF91F9
:10075000AF919F918F917F916F915F914F913F9159
:100760002F910F900FBE0F901F9018951F920F9210
:100770000FB60F9211242F938F939F93EF93FF93B4
:10078000E0913201F09133018081E0913801F091E4
:10079000390182FD1BC0908180913B018F5F8F7377
:1007A00020913C01821741F0E0913B01F0E0EE5DC9
:1007B000FE4F958F80933B01FF91EF919F918F9119
:1007C0002F910F900FBE0F901F9018958081F4CF3E
:1007D0001F920F920FB60F9211242F933F934F93B6
:1007E0005F936F937F938F939F93AF93BF93CF93B9
:1007F000DF93EF93FF9380911801C091E301D0E064
:1008000087FF24C010928500109284008091180107
:100810008F5F8093180180911801082E000C990BAE
:100820008C179D0724F4809118018C30C4F18091BD
:10083000840090918500049680349C4908F47AC025
:100840008091840090918500049676C08091180173
:10085000082E000C990B8C179D07C4F6E091180127
:100860008E2FEE0F990BFC01EE0FFF1FE80FF91F03
:10087000E154FE4F808186FFC9CFE09118018E2F91
:10088000EE0F990BFC01EE0FFF1FE80FF91FE1546B
:10089000FE4F808160E08F730E944301B7CF2091AB
:1008A000840030918500E09118018E2FEE0F990B96
:1008B000FC01EE0FFF1FE80FF91FE154FE4F81818D
:1008C0009281820F931F9093890080938800E0911A
:1008D00018018E2FEE0F990BFC01EE0FFF1FE80F92
:1008E000F91FE154FE4F808186FF11C0E09118018D
:1008F0008E2FEE0F990BFC01EE0FFF1FE80FF91F73
:10090000E154FE4F808161E08F730E944301FF91AB
:10091000EF91DF91CF91BF91AF919F918F917F9197
:100920006F915F914F913F912F910F900FBE0F905C
:100930001F90189580E49CE990938900809388002B
:100940008FEF80931801E3CF1092250110922401BC
:1009500088EE93E0A0E0B0E0809326019093270119
:10096000A0932801B093290184E091E090932301A2
:100970008093220185EC90E090932F0180932E01CB
:1009800084EC90E0909331018093300180EC90E012
:10099000909333018093320181EC90E09093350184
:1009A0008093340182EC90E090933701809336017C
:1009B00086EC90E0909339018093380110923B01CE
:1009C00010923C0110923D0110923E018091E30192
:1009D0008C3098F491E0980F9093E3018093E401B8
:1009E00090E0FC01EE0FFF1FE80FF91FE154FE4FEE
:1009F00088EB9BE09283818308958FEF8093E401DD
:100A00000895789484B5826084BD84B5816084BD86
:100A100085B5826085BD85B5816085BD80916E009C
:100A2000816080936E0010928100809181008260CD
:100A3000809381008091810081608093810080910A
:100A400080008160809380008091B10084608093F9
:100A5000B1008091B00081608093B00080917A00F5
:100A6000846080937A0080917A00826080937A001B
:100A700080917A00816080937A0080917A0080680A
:100A800080937A001092C10060E08BE00E947101B7
:100A900060E08CE00E94710161E082E00E947101DF
:100AA00061E083E00E94710161E08AE00E947101CF
:100AB000E0913201F091330182E08083E0912E01D8
:100AC000F0912F011082E0913001F09131018FEC13
:100AD000808310923A01E0913601F091370186E06F
:100AE0008083E0913401F0913501808180618083C1
:100AF000E0913401F0913501808188608083E0913C
:100B00003401F0913501808180688083E091340167
:100B1000F091350180818F7D80838091E4018C305C
:100B200008F051C061E088E00E9471018091E40109
:100B3000282F30E0F901EE0FFF1FE20FF31FE15401
:100B4000FE4F9081907C986090831092E501109206
:100B5000E6012CE0622F0E94CE06829FB001112494
:100B600030E020E0AB01420F531FFA01EE0FFF1FF0
:100B7000E40FF51FE154FE4F908196FD16C02F5FE4
:100B80003F4F2C30310571F781110FC0109280005A
:100B900082E0809381001092850010928400B19AC7
:100BA00080916F00826080936F00E091E4018E2F4E
:100BB00090E0FC01EE0FFF1FE80FF91FE154FE4F1C
:100BC00080818064808390E080E00E948C0000E05F
:100BD00010E08BE00E941A017C018CE00E941A0157
:100BE000EC0121E0E216F10419F0019709F05CC074
:100BF00061E082E00E94430161E08AE00E944301DB
:100C000060E083E00E94430184EB90E00E948C004E
:100C1000B701FF0C880B990B97FF55C00E94250365
:100C200082E191E00E94D402BE01DD0F880B990B96
:100C300097FF4DC00E94250387E191E00E94D402F6
:100C400085E191E00E94D4020E94A2014B015C0167
:100C500084E6C82ED12CE12CF12C0E94A201681947
:100C600079098A099B09683E734081059105A8F3BB
:100C700081E0C81AD108E108F10828EE820E23E0CD
:100C8000921EA11CB11CC114D104E104F10429F786
:100C90000115110509F49DCF0E943102882309F442
:100CA00098CF0E94000095CF60E082E00E9443014F
:100CB00061E083E00E94430160E08AE00E9443011A
:100CC00090E080E0A3CF4AE00E94E102A9CF4AE091
:100CD0000E94E102B1CF052E97FB1EF400940E9402
:100CE000820657FD07D00E949D0607FC03D04EF4F4
:100CF0000C94820650954095309521953F4F4F4F6B
:100D00005F4F089590958095709561957F4F8F4FB7
:100D10009F4F08950E94BF06A59F900DB49F900D10
:100D2000A49F800D911D11240895B7FF0C948A068D
:100D30000E948A06821B930B0895A1E21A2EAA1B19
:100D4000BB1BFD010DC0AA1FBB1FEE1FFF1FA2177B
:100D5000B307E407F50720F0A21BB30BE40BF50B78
:100D6000661F771F881F991F1A9469F76095709501
:100D7000809590959B01AC01BD01CF010895A29F84
:100D8000B001B39FC001A39F700D811D1124911D5F
:100D9000B29F700D811D1124911D0895991B79E05A
:100DA00004C0991F961708F0961B881F7A95C9F7FB
:100DB00080950895EE0FFF1F0590F491E02D0994A2
:040DC000F894FFCFD5
:100DC400000000006702C701F401B4022502030217
:080DD40017022A20000D0A009D
:00000001FF
