:100000000C945D000C9485000C9485000C94850084
:100010000C9485000C9485000C9485000C9485004C
:100020000C9485000C9485000C9485000C9485003C
:100030000C9485000C9485000C9485000C9485002C
:100040000C94A0020C9485000C946E020C9448024F
:100050000C9485000C9485000C9485000C9485000C
:100060000C9485000C94850000000008000201003B
:100070000003040700000000000000000000000072
:10008000250028002B0000000000240027002A0083
:10009000040404040404040402020202020203032E
:1000A0000303030301020408102040800102040836
:1000B00010200102040810200C0411241FBECFEFF1
:1000C000D8E0DEBFCDBF11E0A0E0B1E0E6ECF8E0A3
:1000D00002C005900D92A033B107D9F721E0A0E34B
:1000E000B1E001C01D92A83DB207E1F710E0CDE5F7
:1000F000D0E004C02197FE010E945B04CC35D107FB
:10010000C9F70E94EA020C9461040C940000AF92BB
:10011000BF92CF92DF92EF92FF920F931F93CF93F4
:10012000DF936C017B018B01040F151FEB015E0156
:10013000AE18BF08C017D10759F06991D601ED91EB
:10014000FC910190F081E02DC6010995892B79F78A
:10015000C501DF91CF911F910F91FF90EF90DF903C
:10016000CF90BF90AF900895FC01538D448D252F03
:1001700030E0842F90E0821B930B541710F0CF9641
:10018000089501970895FC01918D828D981761F073
:10019000A28DAE0FBF2FB11D5D968C91928D9F5F8A
:1001A0009F73928F90E008958FEF9FEF0895FC0169
:1001B000918D828D981731F0828DE80FF11D858D1C
:1001C00090E008958FEF9FEF0895FC01918D228DAF
:1001D000892F90E0805C9F4F821B91098F73992734
:1001E00008958BE391E00E94E50021E0892B09F45A
:1001F00020E0822F089580E090E0892B29F00E9472
:10020000F10081110C9400000895FC01A48DA80F49
:10021000B92FB11DA35ABF4F2C91848D90E0019648
:100220008F739927848FA689B7892C93A089B18968
:100230008C91837080648C93938D848D981306C009
:100240000288F389E02D80818F7D80830895EF926D
:10025000FF920F931F93CF93DF93EC0181E0888F80
:100260009B8D8C8D98131AC0E889F989808185FF50
:1002700015C09FB7F894EE89FF896083E889F989F2
:1002800080818370806480839FBF81E090E0DF91F4
:10029000CF911F910F91FF90EF900895F62E0B8D47
:1002A00010E00F5F1F4F0F731127E02E8C8D8E1102
:1002B0000CC00FB607FCFACFE889F989808185FF69
:1002C000F5CFCE010E940501F1CFEB8DEC0FFD2F94
:1002D000F11DE35AFF4FF0829FB7F8940B8FEA8924
:1002E000FB8980818062CFCFCF93DF93EC01888D33
:1002F0008823B9F0AA89BB89E889F9898C9185FDA1
:1003000003C0808186FD0DC00FB607FCF7CF8C912E
:1003100085FFF2CF808185FFEDCFCE010E940501E0
:10032000E9CFDF91CF91089590E0FC01E859FF4FAC
:100330002491FC01EC55FF4F3491FC01E057FF4F35
:10034000E491EE23C9F0222339F0233001F1A8F41F
:10035000213019F1223029F1F0E0EE0FFF1FE458AF
:10036000FF4FA591B4918FB7F894EC91611126C01D
:1003700030953E233C938FBF08952730A9F0283055
:10038000C9F0243049F7809180008F7D03C08091AF
:1003900080008F7780938000DFCF84B58F7784BD16
:1003A000DBCF84B58F7DFBCF8091B0008F778093BA
:1003B000B000D2CF8091B0008F7DF9CF3E2BDACF45
:1003C0003FB7F8948091350190913601A0913701A3
:1003D000B091380126B5A89B05C02F3F19F00196B2
:1003E000A11DB11D3FBFBA2FA92F982F8827BC018F
:1003F000CD01620F711D811D911D42E0660F771FB7
:10040000881F991F4A95D1F708958F929F92AF92B6
:10041000BF92CF92DF92EF92FF920E94E0014B01D8
:100420005C0188EEC82E83E0D82EE12CF12C0E94CE
:10043000E001681979098A099B09683E73408105C2
:100440009105A8F321E0C21AD108E108F10888EE6D
:10045000880E83E0981EA11CB11CC114D104E104D4
:10046000F10429F7FF90EF90DF90CF90BF90AF900D
:100470009F908F900895FC0101900020E9F731973B
:10048000AF01481B590BBC018BE391E00C94870032
:100490001F920F920FB60F9211242F933F934F93F9
:1004A0005F936F937F938F939F93AF93BF93EF93DC
:1004B000FF938BE391E00E940501FF91EF91BF91C3
:1004C000AF919F918F917F916F915F914F913F91EC
:1004D0002F910F900FBE0F901F9018951F920F92A3
:1004E0000FB60F9211242F938F939F93EF93FF9347
:1004F000E0914B01F0914C018081E0915101F0912C
:10050000520182FD1BC09081809154018F5F8F73D7
:1005100020915501821741F0E0915401F0E0E55C33
:10052000FE4F958F80935401FF91EF919F918F9192
:100530002F910F900FBE0F901F9018958081F4CFD0
:100540001F920F920FB60F9211242F933F938F9308
:100550009F93AF93BF938091310190913201A0910D
:100560003301B09134013091300123E0230F2D3756
:1005700058F50196A11DB11D2093300180933101E2
:1005800090933201A0933301B093340180913501EF
:1005900090913601A0913701B09138010196A11DCB
:1005A000B11D8093350190933601A0933701B0932C
:1005B0003801BF91AF919F918F913F912F910F90F3
:1005C0000FBE0F901F90189526E8230F0296A11DCD
:1005D000B11DD2CFCF93DF93CDB7DEB7A1970FB6C2
:1005E000F894DEBF0FBECDBF789484B5826084BD21
:1005F00084B5816084BD85B5826085BD85B5816027
:1006000085BD80916E00816080936E0010928100A4
:10061000809181008260809381008091810081605F
:100620008093810080918000816080938000809120
:10063000B10084608093B1008091B00081608093AC
:10064000B00080917A00846080937A0080917A0073
:10065000826080937A0080917A00816080937A0032
:1006600080917A00806880937A001092C100E091B6
:100670004B01F0914C0182E08083E0914701F091C1
:1006800048011082E0914901F0914A018FEC80838A
:1006900010925301E0914F01F091500186E0808368
:1006A000E0914D01F0914E01808180618083E09165
:1006B0004D01F0914E01808188608083E0914D0171
:1006C000F0914E01808180688083E0914D01F0912E
:1006D0004E0180818F7D8083EEEAF0E02491EAE98B
:1006E000F0E08491882399F090E0880F991FFC0135
:1006F000EA57FF4FA591B491FC01E458FF4F859153
:1007000094918FB7F894EC91E22BEC938FBF84E433
:10071000782E9AE0892E912CA12CB12C00E010E0CB
:1007200070927C0080917A00806480937A0080913E
:100730007A0086FDFCCF80917800909179009093AB
:100740003A018093390161E0813991400CF060E019
:100750008AE00E9494010E94050282E191E00E94D9
:100760003B028CE291E00E943B02C0903901D090A4
:100770003A010D2C000CEE08FF08F7FE37C06DE2C1
:100780008BE391E00E94270122273327A9012C192E
:100790003D094E095F0919A2CE0181967C01CA016B
:1007A000B901A50194010E943904605DF7016293CB
:1007B0007F01211531054105510589F7E114F10447
:1007C00019F0C7010E943B028CE291E00E943B02BB
:1007D0000E9405020115110509F4A2CF0E94F10043
:1007E000882309F49DCF0E9400009ACFA7019601AB
:1007F00019A2CE0181967C01CA01B901A50194011B
:100800000E943904605DF70162937F012115310573
:100810004105510589F7D2CFEBE3F1E01382128253
:1008200088EE93E0A0E0B0E084839583A683B7834D
:1008300084E091E09183808385EC90E095878487C4
:1008400084EC90E09787868780EC90E0918B808B9A
:1008500081EC90E0938B828B82EC90E0958B848B83
:1008600086EC90E0978B868B118E128E138E148EF1
:100870000895A1E21A2EAA1BBB1BFD010DC0AA1FE1
:10088000BB1FEE1FFF1FA217B307E407F50720F0F9
:10089000A21BB30BE40BF50B661F771F881F991F74
:1008A0001A9469F760957095809590959B01AC01BD
:1008B000BD01CF010895EE0FFF1F0590F491E02DCB
:0608C0000994F894FFCF3B
:1008C6000000000027018700B4007401E500C300A2
:1008D600D700496E74656E73697479206F662074EB
:1008E6006865204C4452206973203D000D0A0000C3
:00000001FF
