:100000000C945D000C9485000C9485000C94850084
:100010000C9485000C9485000C9485000C9485004C
:100020000C9485000C9485000C9485000C9485003C
:100030000C9485000C9485000C9485000C9485002C
:100040000C94A0040C9485000C946E040C94480449
:100050000C9485000C9485000C9485000C9485000C
:100060000C9485000C94850000000008000201003B
:100070000003040700000000000000000000000072
:10008000250028002B0000000000240027002A0083
:10009000040404040404040402020202020203032E
:1000A0000303030301020408102040800102040836
:1000B0001020010204081020EA0411241FBECFEF13
:1000C000D8E0DEBFCDBF11E0A0E0B1E0EEE4FEE09D
:1000D00002C005900D92A43CB107D9F722E0A4EC30
:1000E000B1E001C01D92A438B207E1F710E0CDE500
:1000F000D0E004C02197FE010E941F07CC35D10734
:10010000C9F70E9434050C9425070C94000090E078
:10011000FC01EC55FF4F249180579F4FFC018491C7
:10012000882399F090E0880F991FFC01EA57FF4F50
:10013000A591B491FC01E458FF4F859194918FB73C
:10014000F894EC91E22BEC938FBF0895AF92BF929D
:10015000CF92DF92EF92FF920F931F93CF93DF9393
:100160006C017B018B01040F151FEB015E01AE18C2
:10017000BF08C017D10759F06991D601ED91FC91E4
:100180000190F081E02DC6010995892B79F7C50111
:10019000DF91CF911F910F91FF90EF90DF90CF9063
:1001A000BF90AF900895FC01538D448D252F30E012
:1001B000842F90E0821B930B541710F0CF96089574
:1001C00001970895FC01918D828D981761F0A28DA1
:1001D000AE0FBF2FB11D5D968C91928D9F5F9F7367
:1001E000928F90E008958FEF9FEF0895FC01918D1D
:1001F000828D981731F0828DE80FF11D858D90E08A
:1002000008958FEF9FEF0895FC01918D228D892F26
:1002100090E0805C9F4F821B91098F73992708950E
:100220008FEC91E00E94040121E0892B09F420E089
:10023000822F089580E090E0892B29F00E94100120
:1002400081110C9400000895FC01A48DA80FB92F12
:10025000B11DA35ABF4F2C91848D90E001968F73EE
:100260009927848FA689B7892C93A089B1898C910D
:10027000837080648C93938D848D981306C002885C
:10028000F389E02D80818F7D80830895EF92FF9226
:100290000F931F93CF93DF93EC0181E0888F9B8DA9
:1002A0008C8D98131AC0E889F989808185FF15C063
:1002B0009FB7F894EE89FF896083E889F989808186
:1002C0008370806480839FBF81E090E0DF91CF9155
:1002D0001F910F91FF90EF900895F62E0B8D10E077
:1002E0000F5F1F4F0F731127E02E8C8D8E110CC0E6
:1002F0000FB607FCFACFE889F989808185FFF5CF31
:10030000CE010E942401F1CFEB8DEC0FFD2FF11DEA
:10031000E35AFF4FF0829FB7F8940B8FEA89FB896D
:1003200080818062CFCFCF93DF93EC01888D8823CB
:10033000B9F0AA89BB89E889F9898C9185FD03C048
:10034000808186FD0DC00FB607FCF7CF8C9185FF2D
:10035000F2CF808185FFEDCFCE010E942401E9CF4D
:10036000DF91CF91089590E0FC01E859FF4F24916F
:10037000FC01EC55FF4F3491FC01E057FF4FE49135
:10038000EE23C9F0222339F0233001F1A8F4213003
:1003900019F1223029F1F0E0EE0FFF1FE458FF4F72
:1003A000A591B4918FB7F894EC91611126C0309566
:1003B0003E233C938FBF08952730A9F02830C9F021
:1003C000243049F7809180008F7D03C080918000A8
:1003D0008F7780938000DFCF84B58F7784BDDBCFAC
:1003E00084B58F7DFBCF8091B0008F778093B00074
:1003F000D2CF8091B0008F7DF9CF3E2BDACF3FB7BF
:10040000F8948091C9019091CA01A091CB01B0915B
:10041000CC0126B5A89B05C02F3F19F00196A11D60
:10042000B11D3FBFBA2FA92F982F8827BC01CD013E
:10043000620F711D811D911D42E0660F771F881F9D
:10044000991F4A95D1F708958F929F92AF92BF92CC
:10045000CF92DF92EF92FF924B015C010E94FF016D
:100460006B017C010E94FF016C197D098E099F09B7
:10047000683E734081059105A8F321E0821A910836
:10048000A108B10888EEC80E83E0D81EE11CF11C5B
:1004900081149104A104B10429F7FF90EF90DF903B
:1004A000CF90BF90AF909F908F900895089590E067
:1004B00080E00895CF93DF93EC0160E08E810E948D
:1004C000B30161E08E810E94B30160E08E810E94E1
:1004D000B3018BE891E00197F1F7DF91CF91089597
:1004E000CF92DF92EF92FF920F931F93CF93DF9300
:1004F0006C017C0187E0E80EF11CD0E0C0E0062F23
:1005000010E0B8010C2E02C0759567950A94E2F7C9
:100510006170F70181917F010E94B3012196C4307F
:10052000D10579F7C601DF91CF911F910F91FF900F
:10053000EF90DF90CF900C945A02CF92DF92EF921F
:10054000FF920F931F93CF93DF93EC01F62E642F4E
:100550008C810E94B3018D818F3F19F060E00E9471
:10056000B3010F2D10E08F8584FF25C06E0187E059
:10057000C80ED11CF12CE12CB8010E2C02C07595CF
:1005800067950A94E2F76170F60181916F010E940C
:10059000B301FFEFEF1AFF0A88E0E816F10461F7F4
:1005A000CE01DF91CF911F910F91FF90EF90DF90DF
:1005B000CF900C945A02B80184E0759567958A959E
:1005C000E1F7CE010E9470026F2DCE01DF91CF9135
:1005D0001F910F91FF90EF90DF90CF900C947002DD
:1005E00040E0682F8CE692E00C949D0281E00E942E
:1005F000F0028BE39FE10197F1F70895CF93DF932A
:10060000823029F490917B02986090937B028093D2
:100610007F021092800280E48093810280E18093C7
:10062000820280E580938302809170020E9487009D
:10063000809171028F3F11F00E94870080917202B9
:100640000E948700CCE6D2E09E012C563240809179
:100650007B0284FD0AC084E090E0219628173907C8
:100660003CF48E810E948700EFCF88E090E0F5CFC8
:100670008BE39DE00197F1F760E0809170020E94AA
:10068000B30160E0809172020E94B3018091710217
:100690008F3F19F060E00E94B30180917B0284FDDE
:1006A00034C063E08CE692E00E947002CBE4D6E4B2
:1006B000CE010197F1F763E08CE692E00E947002B0
:1006C0002197F1F763E08CE692E00E94700283E5E7
:1006D00092E00197F1F762E08CE692E00E947002EE
:1006E00080917B0280620E94F00284E080937C0211
:1006F0008CE00E94F0020E94F60282E080937D026C
:1007000086E0DF91CF910C94F00280620E94F002AB
:100710008BE496E40197F1F780917B0280620E945E
:10072000F00283E592E00197F1F780917B0280620D
:100730000E94F002D5CFE1E080917F028111E0E0DC
:10074000E195F0E0E459FD4F848980680C94F00253
:1007500041E00E949D0281E090E00895FB0101903C
:100760000020E9F73197AF01461B570BDC01ED91F3
:10077000FC910280F381E02D09944F925F926F9279
:100780007F928F929F92AF92BF92CF92DF92EF9221
:10079000FF920F931F93CF93DF93CDB7DEB7A1974F
:1007A0000FB6F894DEBF0FBECDBF8C016B01770F83
:1007B000EE08FF08F7FE49C0DC01ED91FC910190C5
:1007C000F081E02D6DE209955C0122273327A90114
:1007D0002C193D094E095F0919A2FE01B1967F014E
:1007E0009AE0492E512C612C712CCA01B901A30148
:1007F00092010E94FD06605DD7016E937D01211577
:1008000031054105510589F790E080E0109721F00E
:10081000BD01C8010E94AE038A0D9B1DA1960FB6B3
:10082000F894DEBF0FBECDBFDF91CF911F910F9126
:10083000FF90EF90DF90CF90BF90AF909F908F9000
:100840007F906F905F904F900895A701960119A235
:10085000FE01B1967F018AE0882E912CA12CB12C4B
:10086000CA01B901A50194010E94FD06605DD7018E
:100870006E937D01211531054105510589F790E001
:1008800080E0109759F2BD01C8010E94AE03C6CFA7
:100890001F920F920FB60F9211242F933F934F93F5
:1008A0005F936F937F938F939F93AF93BF93EF93D8
:1008B000FF938FEC91E00E942401FF91EF91BF9193
:1008C000AF919F918F917F916F915F914F913F91E8
:1008D0002F910F900FBE0F901F9018951F920F929F
:1008E0000FB60F9211242F938F939F93EF93FF9343
:1008F000E091DF01F091E0018081E091E501F0916C
:10090000E60182FD1BC090818091E8018F5F8F73AB
:100910002091E901821741F0E091E801F0E0E15314
:10092000FE4F958F8093E801FF91EF919F918F91FA
:100930002F910F900FBE0F901F9018958081F4CFCC
:100940001F920F920FB60F9211242F933F938F9304
:100950009F93AF93BF938091C5019091C601A091E1
:10096000C701B091C8013091C40123E0230F2D3796
:1009700058F50196A11DB11D2093C4018093C501B6
:100980009093C601A093C701B093C8018091C9019B
:100990009091CA01A091CB01B091CC010196A11D0B
:1009A000B11D8093C9019093CA01A093CB01B0936C
:1009B000CC01BF91AF919F918F913F912F910F905B
:1009C0000FBE0F901F90189526E8230F0296A11DC9
:1009D000B11DD2CFEFECF1E01382128288EE93E0EA
:1009E000A0E0B0E084839583A683B78384E091E0A0
:1009F0009183808385EC90E09587848784EC90E0F8
:100A00009787868780EC90E0918B808B81EC90E0DB
:100A1000938B828B82EC90E0958B848B86EC90E0BC
:100A2000978B868B118E128E138E148EECE6F2E06D
:100A30001382128286E191E0918380838DE084832A
:100A40008FEF85838CE086838BE087838AE08087C5
:100A500089E0818788E0828713861486158616864A
:100A6000178681E00C94FE02789484B5826084BD80
:100A700084B5816084BD85B5826085BD85B58160A2
:100A800085BD80916E00816080936E001092810020
:100A900080918100826080938100809181008160DB
:100AA000809381008091800081608093800080919C
:100AB000B10084608093B1008091B0008160809328
:100AC000B00080917A00846080937A0080917A00EF
:100AD000826080937A0080917A00816080937A00AE
:100AE00080917A00806880937A001092C100E09132
:100AF000DF01F091E00182E08083E091DB01F09181
:100B0000DC011082E091DD01F091DE018FEC808349
:100B10001092E701E091E301F091E40186E0808327
:100B2000E091E101F091E201808180618083E091B8
:100B3000E101F091E201808188608083E091E10130
:100B4000F091E201808180688083E091E101F09181
:100B5000E20180818F7D808382E00E94FE020E94FC
:100B6000F6026EE171E08CE692E00E94AE030E9414
:100B7000F6020E949B0314E4C0E0D0E010937C00D6
:100B800080917A00806480937A0080917A0086FD5B
:100B9000FCCF80917800909179009093CE01809362
:100BA000CD0163E371E08FEC91E00E94AE036DE450
:100BB00071E08FEC91E00E94AE036091CD017091E5
:100BC000CE018FEC91E00E94BD036DE471E08FECEB
:100BD00091E00E94AE030E94F6020E949B03609186
:100BE000CD017091CE018CE692E00E94BD0368EECB
:100BF00073E080E090E00E9424028091CD0190910A
:100C0000CE0184569109893C9105A0F587E00E94A8
:100C1000870086E00E94870085E00E94870084E0CC
:100C20000E94870060E087E00E94B30161E086E0F7
:100C30000E94B30161E085E00E94B30160E084E0BE
:100C40000E94B3010E94F6020E949B0360E571E0DE
:100C50008CE692E00E94AE036091CD017091CE01CE
:100C60008CE692E00E94BD0368EB7BE080E090E0C0
:100C70000E9424028091CD019091CE018D5291402D
:100C8000883C910530F587E00E94870086E00E944D
:100C9000870061E086E00E94B30160E087E00E9487
:100CA000B3010E94F6020E949B0367E671E08CE6A6
:100CB00092E00E94AE036091CD017091CE018CE66E
:100CC00092E00E94BD0368EB7BE080E090E00E9430
:100CD00024028091CD019091CE018436910534F5A6
:100CE00087E00E94870086E00E94870060E086E03F
:100CF0000E94B30160E087E00E94B3010E94F60207
:100D00000E949B036EE771E08CE692E00E94AE03C6
:100D10006091CD017091CE018CE692E00E94BD03FE
:100D200068EB7BE080E090E00E9424028091CD019E
:100D30009091CE01855F9140883C910530F587E028
:100D40000E94870086E00E94870061E087E00E94A1
:100D5000B30160E086E00E94B3010E94F6020E94A7
:100D60009B0365E971E08CE692E00E94AE0360911E
:100D7000CD017091CE018CE692E00E94BD0368EB3C
:100D80007BE080E090E00E9424028091CD01909170
:100D9000CE018D3B924034F187E00E94870086E0CF
:100DA0000E94870061E086E00E94B30160E087E076
:100DB0000E94B3010E94F6020E949B036CEA71E05C
:100DC0008CE692E00E94AE036091CD017091CE015D
:100DD0008CE692E00E94BD0368EB7BE080E090E04F
:100DE0000E942402209709F4C9CE0E941001882392
:100DF00009F4C4CE0E940000C1CEA1E21A2EAA1BA3
:100E0000BB1BFD010DC0AA1FBB1FEE1FFF1FA217BA
:100E1000B307E407F50720F0A21BB30BE40BF50BB7
:100E2000661F771F881F991F1A9469F76095709540
:100E3000809590959B01AC01BD01CF010895EE0F07
:0E0E4000FF1F0590F491E02D0994F894FFCF68
:100E4E00000000004601A600D30093010401E20059
:100E5E00F60000000000A803A600570256024C6FD1
:100E6E006164696E672F496E697469616C697A692C
:100E7E006E6700496E74656E73697479206F6620B3
:100E8E00746865204C4452206973203D000D0A00A1
:100E9E00476F696E6720462E2E2E204C44522076C8
:100EAE00616C75653A2000476F696E6720422E2E81
:100EBE002E204C44522076616C75653A2000537496
:100ECE006F707065642E2E2E204C44522076616C0D
:100EDE0075653A2000476F696E6720522E2E2E20C0
:100EEE004C44522076616C75653A2000476F696EEE
:100EFE0067204C2E2E2E204C44522076616C756548
:040F0E003A20000085
:00000001FF
