:100000000C945D000C9485000C9485000C94850084
:100010000C9485000C9485000C9485000C9485004C
:100020000C9485000C9485000C9485000C9485003C
:100030000C9485000C9485000C9485000C9485002C
:100040000C9494030C9485000C9404040C94DE032B
:100050000C9485000C9485000C9485000C9485000C
:100060000C9485000C94850000000008000201003B
:100070000003040700000000000000000000000072
:10008000250028002B0000000000240027002A0083
:10009000040404040404040402020202020203032E
:1000A0000303030301020408102040800102040836
:1000B0001020010204081020AC0811241FBECFEF4D
:1000C000D8E0DEBFCDBF12E0A0E0B1E0ECE8F6E1A1
:1000D00002C005900D92A238B107D9F723E0A2E83B
:1000E000B2E001C01D92A233B207E1F710E0CDE506
:1000F000D0E004C02197FE010E943E0BCC35D10711
:10010000C9F70E9436040C94440B0C94000090E054
:10011000FC01EC55FF4F249180579F4FFC018491C7
:10012000882399F090E0880F991FFC01EA57FF4F50
:10013000A591B491FC01E458FF4F859194918FB73C
:10014000F894EC91E22BEC938FBF089590E0FC01C2
:10015000E859FF4F2491FC01EC55FF4F3491FC010D
:10016000E057FF4FE491EE23C9F0222339F023300A
:1001700001F1A8F4213019F1223029F1F0E0EE0F5D
:10018000FF1FE458FF4FA591B4918FB7F894EC91FD
:10019000611126C030953E233C938FBF08952730D0
:1001A000A9F02830C9F0243049F7809180008F7D74
:1001B00003C0809180008F7780938000DFCF84B56B
:1001C0008F7784BDDBCF84B58F7DFBCF8091B0006E
:1001D0008F778093B000D2CF8091B0008F7DF9CF20
:1001E0003E2BDACF3FB7F894809191029091920222
:1001F000A0919302B091940226B5A89B05C02F3F11
:1002000019F00196A11DB11D3FBFBA2FA92F982F3C
:100210008827BC01CD01620F711D811D911D42E037
:10022000660F771F881F991F4A95D1F708958F92FF
:100230009F92AF92BF92CF92DF92EF92FF926B01AB
:100240007C010E94F2004B015C01C114D104E10465
:10025000F104B9F00E94F200681979098A099B0932
:10026000683E73408105910580F321E0C21AD108F0
:10027000E108F10888EE880E83E0981EA11CB11CED
:10028000E4CFFF90EF90DF90CF90BF90AF909F9022
:100290008F900895AF92BF92CF92DF92EF92FF922C
:1002A0000F931F93CF93DF936C017B018B01040F9E
:1002B000151FEB015E01AE18BF08C017D10759F03A
:1002C0006991D601ED91FC910190F081E02DC6017C
:1002D0000995892B79F7C501DF91CF911F910F9176
:1002E000FF90EF90DF90CF90BF90AF900895FC010A
:1002F000538D448D252F30E0842F90E0821B930B8B
:10030000541710F0CF96089501970895FC01918D30
:10031000828D981761F0A28DAE0FBF2FB11D5D9633
:100320008C91928D9F5F9F73928F90E008958FEFD5
:100330009FEF0895FC01918D828D981731F0828D89
:10034000E80FF11D858D90E008958FEF9FEF0895E0
:10035000FC01918D228D892F90E0805C9F4F821B44
:1003600091098F739927089585E992E00E94A80169
:1003700021E0892B09F420E0822F089580E090E0AD
:10038000892B29F00E94B40181110C94000008957A
:10039000FC01A48DA80FB92FB11DA35ABF4F2C91FA
:1003A000848D90E001968F739927848FA689B789F1
:1003B0002C93A089B1898C91837080648C93938DE8
:1003C000848D981306C00288F389E02D80818F7D8B
:1003D00080830895EF92FF920F931F93CF93DF9343
:1003E000EC0181E0888F9B8D8C8D98131AC0E88971
:1003F000F989808185FF15C09FB7F894EE89FF8940
:100400006083E889F98980818370806480839FBFDD
:1004100081E090E0DF91CF911F910F91FF90EF90DD
:100420000895F62E0B8D10E00F5F1F4F0F731127ED
:10043000E02E8C8D8E110CC00FB607FCFACFE88928
:10044000F989808185FFF5CFCE010E94C801F1CFE7
:10045000EB8DEC0FFD2FF11DE35AFF4FF0829FB79C
:10046000F8940B8FEA89FB8980818062CFCFCF938C
:10047000DF93EC01888D8823B9F0AA89BB89E889CC
:10048000F9898C9185FD03C0808186FD0DC00FB672
:1004900007FCF7CF8C9185FFF2CF808185FFEDCFF0
:1004A000CE010E94C801E9CFDF91CF910895FC01F0
:1004B00001900020E9F73197AF01481B590BBC01AF
:1004C00085E992E00C944A018F929F92AF92BF927D
:1004D0000F931F93CF93DF93CDB7DEB7A1970FB6DE
:1004E000F894DEBF0FBECDBF19A2423008F44AE037
:1004F0008E010F5D1F4F842E912CB12CA12CA501D4
:1005000094010E941C0BE62FB901CA01EA30F4F4F1
:10051000E05DD801EE938D01232B242B252B79F759
:1005200090E080E0109719F0CD010E945702A1964B
:100530000FB6F894DEBF0FBECDBFDF91CF911F91F4
:100540000F91BF90AF909F908F900895E95CE1CF9D
:100550000C945702CF93DF930E945702EC0186E17F
:1005600091E00E9457028C0F9D1FDF91CF9108955B
:100570004F925F926F927F928F929F92AF92BF92B3
:10058000CF92DF92EF92FF920F931F93CF936B0165
:100590007C01742EAC019B010E94170B882399F0FB
:1005A00089E191E0CF911F910F91FF90EF90DF9043
:1005B000CF90BF90AF909F908F907F906F905F9003
:1005C0004F900C94570246015701E894B7F82FEF6B
:1005D0003FEF4FE75FE7C501B4010E94170B8111A0
:1005E0000DC02FEF3FEF4FE75FE7C501B4010E9459
:1005F000460918161CF48DE191E0D4CF2FEF3FEFA0
:100600004FE75FE4C701B6010E94A50A18161CF463
:1006100081E291E0C7CF2FEF3FEF4FE75FECC701DB
:10062000B6010E94460987FDF3CF20E030E0A90122
:10063000C701B6010E94460910E000E087FF0AC02A
:100640006DE285E992E00E94EA018C01F7FAF094EC
:10065000F7F8F094C0E060E070E080E09FE37C1683
:1006600041F020E030E040E251E40E944B09CF5FCE
:10067000F6CFA70196010E94DA082B013C010E94E7
:10068000C4094B015C014AE00E9464027C01E00E57
:10069000F11ECC23C1F1C501B4010E94F3099B01F5
:1006A000AC01C301B2010E94D9084B015C016EE2AA
:1006B00085E992E00E94EA01E80EF91EC15018F1A6
:1006C00020E030E040E251E4C501B4010E94AA0AF2
:1006D0002B013C010E94C4094B01B12CA12C4AE022
:1006E000C501B4010E946402E80EF91EC501B401FF
:1006F0000E94F3099B01AC01C301B2010E94D90819
:100700004B015C01DBCFC701CF911F910F91FF908F
:10071000EF90DF90CF90BF90AF909F908F907F90A1
:100720006F905F904F9008951F920F920FB60F92A7
:1007300011242F933F938F939F93AF93BF938091F7
:100740008D0290918E02A0918F02B0919002309113
:100750008C0223E0230F2D3758F50196A11DB11D02
:1007600020938C0280938D0290938E02A0938F022F
:10077000B09390028091910290919202A091930285
:10078000B09194020196A11DB11D809391029093A6
:100790009202A0939302B0939402BF91AF919F9164
:1007A0008F913F912F910F900FBE0F901F90189532
:1007B00026E8230F0296A11DB11DD2CF1F920F92E2
:1007C0000FB60F9211242F933F934F935F936F9324
:1007D0007F938F939F93AF93BF93EF93FF9385E99D
:1007E00092E00E94C801FF91EF91BF91AF919F915C
:1007F0008F917F916F915F914F913F912F910F90CA
:100800000FBE0F901F9018951F920F920FB60F9268
:1008100011242F938F939F93EF93FF93E091A50261
:10082000F091A6028081E091AB02F091AC0282FDD2
:100830001BC090818091AE028F5F8F732091AF02B9
:10084000821741F0E091AE02F0E0EB56FD4F958F3C
:100850008093AE02FF91EF919F918F912F910F9016
:100860000FBE0F901F9018958081F4CFCF93DF9328
:1008700000D000D000D0CDB7DEB7789484B58260C8
:1008800084BD84B5816084BD85B5826085BD85B534
:10089000816085BD80916E00816080936E001092B2
:1008A000810080918100826080938100809181002D
:1008B00081608093810080918000816080938000BE
:1008C0008091B10084608093B1008091B00081601C
:1008D0008093B00080917A00846080937A00809148
:1008E0007A00826080937A0080917A0081608093A0
:1008F0007A0080917A00806880937A001092C1001B
:10090000E091A502F091A60282E08083E091A1022D
:10091000F091A2021082E091A302F091A4028FEC68
:1009200080831092AD02E091A902F091AA0286E0C4
:100930008083E091A702F091A8028081806180838A
:10094000E091A702F091A802808188608083E09105
:10095000A702F091A802808180688083E091A702BD
:10096000F091A80280818F7D80838DE00E948700B6
:1009700022E0298389810E94870060E089810E94AA
:10098000A60039813F5F39833D30A1F78FE00E9497
:10099000870080E10E94870081E10E94870082E158
:1009A0000E94870083E10E9487009DEC892E9CECC9
:1009B000992E9CE4A92E9EE3B92E80E6282E8AEE7D
:1009C000382EC0908A02D0908B024FEFC41AD40AFE
:1009D000D0928B02C0928A020D2C000CEE08FF0808
:1009E0004AE0C701B601F7FE0DC06DE285E992E06D
:1009F0000E94EA0166277727CB016C197D098E09D1
:100A00009F094AE00E94640286E191E00E94570239
:100A100085E992E00E94A801181619060CF04CC056
:100A200085E992E00E948601853621F580E090E01C
:100A3000A0E8B0E48093000190930101A09302012B
:100A4000B093030185E291E00E94A8026091000149
:100A500070910101809102019091030142E00E9496
:100A6000B80261E08DE00E94A60080EB91E00E9458
:100A7000A8021EC0883709F05CC080E090E0A0EDBD
:100A8000B1E48093000190930101A0930201B0931F
:100A9000030183E491E00E94A8026091000170913B
:100AA0000101809102019091030142E00E94B8028D
:100AB00089E692E00E94A8028FB7F894C0908D0258
:100AC000D0908E02E0908F02F09090028FBF20E0D5
:100AD00034E070E060E04FB7F89480918D0290911F
:100AE0008E02A0918F02B09190024FBF8C199D0988
:100AF000AE09BF09883E9340A105B10508F0ECC0DE
:100B000080E480937C0080917A00806480937A00F6
:100B100080917A0086FDFCCF8091780090917900D9
:100B2000681779070CF4BC0182179307A4F69C019F
:100B3000D2CF863501F580E090E0A0E8BFE3809356
:100B4000000190930101A0930201B09303018BE592
:100B500091E00E94AA0260910001709101018091D0
:100B600002019091030142E00E94B80286E191E007
:100B70000E9457029DCF823709F0D9C28DEC9CECC0
:100B8000ACE8BFE38093000190930101A0930201C0
:100B9000B09303018CE691E00E94AA0260910001EB
:100BA00070910101809102019091030142E00E9445
:100BB000B80286E191E00E94570280920001909273
:100BC0000101A0920201B092030187E891E00E9426
:100BD000A802609100017091010180910201909141
:100BE000030142E00E94B80287EB91E00E94A80254
:100BF00026E636E646E65FE360918602709187025C
:100C000080918802909189020E94A50A181624F406
:100C10008CED91E00E94A802C0908602D0908702DD
:100C2000E0908802F090890226E636E646E65FE329
:100C3000C701B6010E94460987FF0EC02DEC3CECAF
:100C40004CE45EE3C701B6010E944609882321F007
:100C50008DEF91E00E94A802809286029092870216
:100C6000A0928802B092890280E292E00E94A802DB
:100C70008BE492E00E94A80285E992E00E9486013E
:100C8000829DB001839D700D929D700D1124072EE1
:100C9000000C880B990B0E94170161E08DE00E9407
:100CA000A60006CF60E08DE00E94A6008DE991E0ED
:100CB0000E94A802109283021092820260E177E201
:100CC00080E090E00E941701F3CE853609F4C9CE8A
:100CD000823709F489CFECCE621B730B072E000C10
:100CE000880B990B0E94F50920E030E040EA50E4BF
:100CF0000E94AA0A20E030E040E85AE30E94AA0AD3
:100D000020E030E040E05FE30E94AA0A24EF3DEFDC
:100D100044E35FE30E94AA0A20E030E04AE754E49B
:100D20000E94AA0A20E030E049E353E40E944B0904
:100D30006093860270938702809388029093890261
:100D400042E00E94B80287E792E00E94AA02409027
:100D5000860250908702609088027090890220E09D
:100D600030E048EC52E4C301B2010E94AA0A6B01D0
:100D70007C0120E030E040E85FE3C301B2010E9463
:100D8000A50A181654F420E030E048EC52E4C701FC
:100D9000B6010E944B096B017C0120E030E040E28B
:100DA00051E4C701B6010E944B090E94BD09698345
:100DB0007A838B839C83A981BA81BE83AD838AE0C9
:100DC0008A9FB0018B9F700D1124072E000C880B99
:100DD000990B0E94F5099B01AC01C701B6010E9465
:100DE000D9080E94BD096B018B0170938502609345
:100DF00084028D819E818A30910578F5FC01ED5F3A
:100E0000F84F0C943E0B0D074007560770078207FA
:100E10009407A207B807BA07C00761E082E00E9402
:100E2000A60061E083E00E94A60061E084E00E94E9
:100E3000A60061E085E00E94A60061E086E00E94D5
:100E4000A60061E087E00E94A60060E088E00E94C2
:100E5000A60060E089E00E94A6000A30110508F0B3
:100E6000B5C0F601EA5CF84F0C943E0BC6071108BA
:100E70002708410853086508730889088B089108FA
:100E800060E082E00E94A60061E083E00E94A6008C
:100E900061E084E00E94A60060E085E00E94A60078
:100EA00060E086E00E94A60060E0CCCF61E082E0D6
:100EB0000E94A60061E083E00E94A60060E084E05A
:100EC0000E94A60061E085E00E94A60061E086E045
:100ED0000E94A60060E087E00E94A60061E0B6CF15
:100EE00061E082E00E94A60061E083E00E94A6002B
:100EF00061E084E00E94A60061E085E00E94A60017
:100F000060E0E5CF60E082E00E94A60061E083E05F
:100F10000E94A60061E084E00E94A60060E085E0F7
:100F20000E94A60060E01FC061E082E00E94A6006F
:100F300060E083E00E94A60061E084E00E94A600D9
:100F400061E0EDCF61E082E00E94A60060E083E016
:100F50000E94A60061E084E00E94A60061E085E0B6
:100F60000E94A60061E086E00E94A60061E0B3CF87
:100F700061E087CF61E082E00E94A60061E0E7CFF8
:100F800061E082E00E94A60061E0D3CF61E08AE0E8
:100F90000E94A60061E08BE00E94A60061E08CE068
:100FA0000E94A60061E08FE00E94A60061E080E15F
:100FB0000E94A60061E081E10E94A60060E082E15B
:100FC0000E94A60060E083E10E94A6008091820258
:100FD00090918302892BC1F480918A0290918B02B7
:100FE000409794F02091000130910101409102015D
:100FF00050910301C301B2010E94460987FF04C05A
:1010000061E08DE00E94A600A0E0B0E0AB2B09F407
:10101000D8CC0E94B401882309F4CFCC0E940000F0
:10102000CCCC60E08AE00E94A60061E08BE00E94E8
:10103000A60061E08CE00E94A60060E08FE00E94C4
:10104000A60060E080E10E94A60060E0B4CF61E00D
:101050008AE00E94A60061E08BE00E94A60060E0AA
:101060008CE00E94A60061E08FE00E94A60061E093
:1010700080E10E94A60060E081E10E94A60061E09C
:101080009ECF61E08AE00E94A60061E08BE00E94B2
:10109000A60061E08CE00E94A60061E08FE00E9463
:1010A000A60060E0E5CF60E08AE00E94A60061E073
:1010B0008BE00E94A60061E08CE00E94A60060E048
:1010C0008FE00E94A60060E01FC061E08AE00E94FD
:1010D000A60060E08BE00E94A60061E08CE00E9428
:1010E000A60061E0EDCF61E08AE00E94A60060E02A
:1010F0008BE00E94A60061E08CE00E94A60061E007
:101100008FE00E94A60061E080E10E94A60061E0FD
:10111000B3CF61E087CF61E08AE00E94A60061E082
:10112000E7CF61E08AE00E94A60061E0D3CF843778
:1011300009F4B8CD8E3609F0C8CD60E08DE00E948C
:10114000A6008BEA91E00E94A802A1E0B0E0B09373
:101150008302A0938202B2CDE5E9F2E0138212820B
:1011600088EE93E0A0E0B0E084839583A683B78304
:1011700088E091E09183808385EC90E09587848777
:1011800084EC90E09787868780EC90E0918B808B51
:1011900081EC90E0938B828B82EC90E0958B848B3A
:1011A00086EC90E0978B868B118E128E138E148EA8
:1011B00008955058BB27AA270E94F1080C946B0A87
:1011C0000E945D0A38F00E94640A20F039F49F3FC3
:1011D00019F426F40C945A0A0EF4E095E7FB0C94EB
:1011E000540AE92F0E947C0A58F3BA176207730762
:1011F0008407950720F079F4A6F50C949E0A0EF466
:10120000E0950B2EBA2FA02D0B01B90190010C0116
:10121000CA01A0011124FF27591B99F0593F50F42E
:10122000503E68F11A16F040A22F232F342F442786
:10123000585FF3CF469537952795A795F04053957E
:10124000C9F77EF41F16BA0B620B730B840BBAF04E
:101250009150A1F0FF0FBB1F661F771F881FC2F7B9
:101260000EC0BA0F621F731F841F48F487957795CD
:101270006795B795F7959E3F08F0B0CF9395880F87
:1012800008F09927EE0F9795879508950E94300AE8
:1012900008F481E008950E945F090C946B0A0E9493
:1012A000640A58F00E945D0A40F029F45F3F29F07B
:1012B0000C94540A51110C949F0A0C945A0A0E94DF
:1012C0007C0A68F39923B1F3552391F3951B550BD1
:1012D000BB27AA2762177307840738F09F5F5F4F09
:1012E000220F331F441FAA1FA9F335D00E2E3AF048
:1012F000E0E832D091505040E695001CCAF72BD060
:10130000FE2F29D0660F771F881FBB1F26173707B0
:101310004807AB07B0E809F0BB0B802DBF01FF27E2
:1013200093585F4F3AF09E3F510578F00C94540A61
:101330000C949F0A5F3FE4F3983ED4F3869577952B
:101340006795B795F7959F5FC9F7880F911D96959B
:10135000879597F90895E1E0660F771F881FBB1FF7
:10136000621773078407BA0720F0621B730B840BA4
:10137000BA0BEE1F88F7E09508950E94C40968949F
:10138000B1110C949F0A08950E94840A88F09F5717
:1013900098F0B92F9927B751B0F0E1F0660F771F99
:1013A000881F991F1AF0BA95C9F714C0B13091F08F
:1013B0000E949E0AB1E008950C949E0A672F782F30
:1013C0008827B85F39F0B93FCCF386957795679554
:1013D000B395D9F73EF490958095709561957F4FC0
:1013E0008F4F9F4F0895E89409C097FB3EF4909566
:1013F0008095709561957F4F8F4F9F4F9923A9F0EE
:10140000F92F96E9BB279395F6958795779567957C
:10141000B795F111F8CFFAF4BB0F11F460FF1BC0C0
:101420006F5F7F4F8F4F9F4F16C0882311F096E953
:1014300011C0772321F09EE8872F762F05C0662301
:1014400071F096E8862F70E060E02AF09A95660FBA
:10145000771F881FDAF7880F9695879597F9089573
:10146000990F0008550FAA0BE0E8FEEF16161706B5
:10147000E807F907C0F012161306E407F50798F01D
:10148000621B730B840B950B39F40A2661F0232B36
:10149000242B252B21F408950A2609F4A140A695B2
:1014A0008FEF811D811D089597F99F6780E870E097
:1014B00060E008959FEF80EC089500240A941616CA
:1014C000170618060906089500240A941216130632
:1014D000140605060895092E0394000C11F48823C0
:1014E00052F0BB0F40F4BF2B11F460FF04C06F5FDC
:1014F0007F4F8F4F9F4F089557FD9058440F551FB2
:1015000059F05F3F71F04795880F97FB991F61F085
:101510009F3F79F087950895121613061406551FFC
:10152000F2CF4695F1DF08C0161617061806991F68
:10153000F1CF86957105610508940895E894BB275D
:1015400066277727CB0197F908950E94300A08F49F
:101550008FEF08950E94BD0A0C946B0A0E945D0AE9
:1015600038F00E94640A20F0952311F00C94540A7C
:101570000C945A0A11240C949F0A0E947C0A70F35E
:10158000959FC1F3950F50E0551F629FF001729F28
:10159000BB27F00DB11D639FAA27F00DB11DAA1F37
:1015A000649F6627B00DA11D661F829F2227B00D84
:1015B000A11D621F739FB00DA11D621F839FA00D0F
:1015C000611D221F749F3327A00D611D231F849F5F
:1015D000600D211D822F762F6A2F11249F575040B6
:1015E0009AF0F1F088234AF0EE0FFF1FBB1F661F31
:1015F000771F881F91505040A9F79E3F510580F0FA
:101600000C94540A0C949F0A5F3FE4F3983ED4F381
:10161000869577956795B795F795E7959F5FC1F79D
:10162000FE2B880F911D9695879597F908950E9436
:10163000300A880B990B0895A1E21A2EAA1BBB1B36
:10164000FD010DC0AA1FBB1FEE1FFF1FA217B3078E
:10165000E407F50720F0A21BB30BE40BF50B661FA4
:10166000771F881F991F1A9469F760957095809568
:1016700090959B01AC01BD01CF010895EE0FFF1FB6
:0C1680000590F491E02D0994F894FFCF40
:10168C003333333F00000000EA014A01770137028F
:10169C00A80186019A010D0A006E616E00696E66E2
:1016AC00006F76660057617368696E67204D6163E1
:1016BC0068696E652C205374616E6461726420538A
:1016CC006574004361626C6520426F782C20537402
:1016DC00616E64617264205365740054562C2053FF
:1016EC0074616E646172642053657400436F666646
:1016FC006565204D616B65722C205374616E64615D
:10170C0072642053657400436861726765722C20A3
:10171C005374616E64617264205365740043697222
:10172C0063756974205265736574004F50454E00A3
:10173C00434C4F534544004578706572696D656E36
:10174C0074616C204F6E6C7920666F722050686FDC
:10175C006E652043686172676572730042657477C9
:10176C0065656E203020616E64203835207065729E
:10177C0063656E74206368617267656400426574AA
:10178C007765656E20383520616E642031303020ED
:10179C0070657263656E742063686172676564005E
:1017AC0031303025206368617267656420616E6436
:1017BC0020646973636F6E6E656374656420667212
:1017CC006F6D2063757272656E7400456E74657210
:1017DC0020646573697265642074696D6520696E37
:1017EC00206D696E75746573004461746120526577
:1017FC006369657665640020416D707320524D53AA
:02180C000000DA
:00000001FF
