:100000000C945D000C9485000C9485000C94850084
:100010000C9485000C9485000C9485000C9485004C
:100020000C9485000C9485000C9485000C9420039E
:100030000C9485000C9485000C9485000C9485002C
:100040000C94D6020C9485000C94A4020C947E02AD
:100050000C9485000C9485000C9485000C9485000C
:100060000C9485000C94850000000008000201003B
:100070000003040700000000000000000000000072
:10008000250028002B0000000000240027002A0083
:10009000040404040404040402020202020203032E
:1000A0000303030301020408102040800102040836
:1000B0001020010204081020DC0311241FBECFEF22
:1000C000D8E0DEBFCDBF11E0A0E0B1E0E8EEFAE09D
:1000D00002C005900D92A832B107D9F721E0A8E23D
:1000E000B1E001C01D92A73FB207E1F710E0CDE5F6
:1000F000D0E004C02197FE010E946C05CC35D107E9
:10010000C9F70E9439040C9472050C940000E09128
:10011000F401EC3088F54091F50128E830E0241B2B
:10012000310947FD3395220F331F220F331F8217EA
:10013000930784F04091F60128E532E0241B310951
:1001400047FD3395220F331F220F331F821793076A
:100150000CF49C0122503109220F331F4FB7F89441
:100160008E2F90E0FC01EE0FFF1FE80FF91FE15307
:10017000FE4F328321834FBF0895AF92BF92CF923B
:10018000DF92EF92FF920F931F93CF93DF936C0157
:100190007B018B01040F151FEB015E01AE18BF0838
:1001A000C017D10759F06991D601ED91FC910190EA
:1001B000F081E02DC6010995892B79F7C501DF9102
:1001C000CF911F910F91FF90EF90DF90CF90BF9054
:1001D000AF900895FC01538D448D252F30E0842F7E
:1001E00090E0821B930B541710F0CF96089501975F
:1001F0000895FC01918D828D981761F0A28DAE0F4C
:10020000BF2FB11D5D968C91928D9F5F9F73928FD2
:1002100090E008958FEF9FEF0895FC01918D828DFE
:10022000981731F0828DE80FF11D858D90E00895CB
:100230008FEF9FEF0895FC01918D228D892F90E023
:10024000805C9F4F821B91098F739927089582E3E9
:1002500091E00E941B0121E0892B09F420E0822F0C
:10026000089580E090E0892B29F00E9427018111F8
:100270000C9400000895FC01A48DA80FB92FB11DA6
:10028000A35ABF4F2C91848D90E001968F739927CC
:10029000848FA689B7892C93A089B1898C918370AA
:1002A00080648C93938D848D981306C00288F389A3
:1002B000E02D80818F7D80830895EF92FF920F93D0
:1002C0001F93CF93DF93EC0181E0888F9B8D8C8D02
:1002D00098131AC0E889F989808185FF15C09FB7F6
:1002E000F894EE89FF896083E889F98980818370B9
:1002F000806480839FBF81E090E0DF91CF911F9168
:100300000F91FF90EF900895F62E0B8D10E00F5F88
:100310001F4F0F731127E02E8C8D8E110CC00FB65E
:1003200007FCFACFE889F989808185FFF5CFCE01F6
:100330000E943B01F1CFEB8DEC0FFD2FF11DE35A35
:10034000FF4FF0829FB7F8940B8FEA89FB89808179
:100350008062CFCFCF93DF93EC01888D8823B9F0F3
:10036000AA89BB89E889F9898C9185FD03C08081C0
:1003700086FD0DC00FB607FCF7CF8C9185FFF2CF3D
:10038000808185FFEDCFCE010E943B01E9CFDF9157
:10039000CF91089590E0FC01E859FF4F2491FC01B2
:1003A000EC55FF4F3491FC01E057FF4FE491EE23F1
:1003B000C9F0222339F0233001F1A8F4213019F1DA
:1003C000223029F1F0E0EE0FFF1FE458FF4FA59116
:1003D000B4918FB7F894EC91611126C030953E230B
:1003E0003C938FBF08952730A9F02830C9F02430FE
:1003F00049F7809180008F7D03C0809180008F77C6
:1004000080938000DFCF84B58F7784BDDBCF84B548
:100410008F7DFBCF8091B0008F778093B000D2CFDB
:100420008091B0008F7DF9CF3E2BDACF3FB7F894A3
:1004300080912E0190912F01A0913001B091310156
:1004400026B5A89B05C02F3F19F00196A11DB11D2F
:100450003FBFBA2FA92F982F8827BC01CD01620F6B
:10046000711D811D911D42E0660F771F881F991F26
:100470004A95D1F708958F929F92AF92BF92CF92F3
:10048000DF92EF92FF920E9416024B015C0180ED19
:10049000C82E87E0D82EE12CF12C0E941602681994
:1004A00079098A099B09683E734081059105A8F383
:1004B00021E0C21AD108E108F10888EE880E83E035
:1004C000981EA11CB11CC114D104E104F10429F748
:1004D000FF90EF90DF90CF90BF90AF909F908F9064
:1004E0000895FC0101900020E9F73197AF01481B06
:1004F000590BBC0182E391E00C94BD001F920F9256
:100500000FB60F9211242F933F934F935F936F93E6
:100510007F938F939F93AF93BF93EF93FF9382E368
:1005200091E00E943B01FF91EF91BF91AF919F91AC
:100530008F917F916F915F914F913F912F910F908C
:100540000FBE0F901F9018951F920F920FB60F922B
:1005500011242F938F939F93EF93FF93E091420188
:10056000F09143018081E0914801F091490182FDC1
:100570001BC0908180914B018F5F8F7320914C0144
:10058000821741F0E0914B01F0E0EE5CFE4F958F59
:1005900080934B01FF91EF919F918F912F910F903D
:1005A0000FBE0F901F9018958081F4CF1F920F926D
:1005B0000FB60F9211242F933F938F939F93AF9376
:1005C000BF9380912A0190912B01A0912C01B091B1
:1005D0002D013091290123E0230F2D3758F5019685
:1005E000A11DB11D2093290180932A0190932B0115
:1005F000A0932C01B0932D0180912E0190912F0199
:10060000A0913001B09131010196A11DB11D8093DF
:100610002E0190932F01A0933001B0933101BF912F
:10062000AF919F918F913F912F910F900FBE0F909F
:100630001F90189526E8230F0296A11DB11DD2CF59
:100640001F920F920FB60F9211242F933F934F9347
:100650005F936F937F938F939F93AF93BF93CF934A
:10066000DF93EF93FF9380912801C091F301D0E0D5
:1006700087FF24C010928500109284008091280189
:100680008F5F8093280180912801082E000C990B20
:100690008C179D0724F4809128018C30C4F180913F
:1006A000840090918500049680349C4908F47AC0B7
:1006B0008091840090918500049676C080912801F5
:1006C000082E000C990B8C179D07C4F6E0912801A9
:1006D0008E2FEE0F990BFC01EE0FFF1FE80FF91F95
:1006E000E153FE4F808186FFC9CFE09128018E2F14
:1006F000EE0F990BFC01EE0FFF1FE80FF91FE153FE
:10070000FE4F808160E08F730E94CA01B7CF2091B5
:10071000840030918500E09128018E2FEE0F990B17
:10072000FC01EE0FFF1FE80FF91FE153FE4F81811F
:100730009281820F931F9093890080938800E091AB
:1007400028018E2FEE0F990BFC01EE0FFF1FE80F13
:10075000F91FE153FE4F808186FF11C0E09128010F
:100760008E2FEE0F990BFC01EE0FFF1FE80FF91F04
:10077000E153FE4F808161E08F730E94CA01FF91B7
:10078000EF91DF91CF91BF91AF919F918F917F9129
:100790006F915F914F913F912F910F900FBE0F90EE
:1007A0001F90189580E49CE99093890080938800BD
:1007B0008FEF80932801E3CF10923501109234011E
:1007C00088EE93E0A0E0B0E080933601909337018B
:1007D000A0933801B093390184E091E09093330104
:1007E0008093320185EC90E090933F0180933E012D
:1007F00084EC90E0909341018093400180EC90E084
:10080000909343018093420181EC90E090934501E5
:100810008093440182EC90E09093470180934601DD
:1008200086EC90E0909349018093480110924B012F
:1008300010924C0110924D0110924E018091F301E3
:100840008C3098F491E0980F9093F3018093F40129
:1008500090E0FC01EE0FFF1FE80FF91FE153FE4F80
:1008600088EB9BE09283818308958FEF8093F4015E
:100870000895789484B5826084BD84B5816084BD18
:1008800085B5826085BD85B5816085BD80916E002E
:10089000816080936E00109281008091810082605F
:1008A000809381008091810081608093810080919C
:1008B00080008160809380008091B100846080938B
:1008C000B1008091B00081608093B00080917A0087
:1008D000846080937A0080917A00826080937A00AD
:1008E00080917A00816080937A0080917A0080689C
:1008F00080937A001092C1008091F4018C3008F04E
:1009000068C0E0EBF0E02491ECE9F0E0849188230A
:1009100099F090E0880F991FFC01EA57FF4FA591CD
:10092000B491FC01E458FF4F859194918FB7F894EE
:10093000EC91E22BEC938FBF8091F401282F30E0F3
:10094000F901EE0FFF1FE20FF31FE153FE4F9081FD
:10095000907C9C6090831092F5011092F6012CE03F
:10096000622F0E946005829FB001112430E020E0D8
:10097000AB01420F531FFA01EE0FFF1FE40FF51FEB
:10098000E153FE4F908196FD16C02F5F3F4F2C30F4
:10099000310571F781110FC01092800082E08093C1
:1009A00081001092850010928400B19A80916F00AE
:1009B000826080936F00E091F4018E2F90E0FC0143
:1009C000EE0FFF1FE80FF91FE153FE4F8081806497
:1009D0008083E0914201F091430182E08083E091C5
:1009E0003E01F0913F011082E0914001F091410100
:1009F0008FEC808310924A01E0914601F09147010B
:100A000086E08083E0914401F0914501808180611E
:100A10008083E0914401F09145018081886080836A
:100A2000E0914401F0914501808180688083E091EC
:100A30004401F091450180818F7D808382E191E0C6
:100A40000E9471028FE191E00E947102C8E8D0E03B
:100A500008E512E040E0E42E40E0F42E82E291E06E
:100A60000E9471028FE191E00E9471028091F50174
:100A70009E01281B310987FD3395C901880F991FF5
:100A8000880F991F0E9487000E943B028091F60107
:100A90009801281B310987FD3395C901880F991FDB
:100AA000880F991F0E9487000E943B02E114F10405
:100AB000A9F20E942701882389F20E940000CECF6C
:100AC000991B79E004C0991F961708F0961B881FA0
:100AD0007A95C9F780950895EE0FFF1F0590F49160
:080AE000E02D0994F894FFCF0A
:100AE800000000005D01BD00EA00AA011B01F90039
:100AF8000D01536572766F20426567696E67000D58
:080B08000A0048656C6C6F00E7
:00000001FF
