:100000000C9462000C948A000C948A000C948A0070
:100010000C948A000C948A000C948A000C948A0038
:100020000C948A000C948A000C948A000C948A0028
:100030000C948A000C948A000C948A000C948A0018
:100040000C94F5020C948A000C948A000C948A009B
:100050000C948A000C948A000C948A000C948A00F8
:100060000C948A000C948A000000000024002700F1
:100070002A0000000000250028002B0000000000DE
:1000800023002600290004040404040404040202DA
:100090000202020203030303030301020408102007
:1000A0004080010204081020010204081020000012
:1000B0000008000201000003040700000000000027
:1000C00000001D0411241FBECFEFD8E0DEBFCDBF5E
:1000D00011E0A0E0B1E0E6E8F8E002C005900D9282
:1000E000A035B107D9F721E0A0E5B1E001C01D922C
:1000F000A137B207E1F710E0C2E6D0E004C02197D3
:10010000FE010E943B04C136D107C9F70E943F039C
:100110000C9441040C940000833081F028F4813069
:1001200099F08230A9F008958730A9F08830C9F09D
:100130008430B1F4809180008F7D03C08091800075
:100140008F7780938000089584B58F7784BD08955C
:1001500084B58F7DFBCF8091B0008F778093B00006
:1001600008958091B0008F7DF9CFCF93DF93282F32
:1001700030E0F901E255FF4F8491F901E656FF4F57
:10018000D491F901EA57FF4FC491CC23A1F081111A
:100190000E948C00EC2FF0E0EE0FFF1FE458FF4FA1
:1001A000A591B491EC91ED2381E090E009F480E019
:1001B000DF91CF91089580E090E0FACF1F93CF9325
:1001C000DF93282F30E0F901E255FF4F8491F901C8
:1001D000E656FF4FD491F901EA57FF4FC491CC2363
:1001E000A9F0162F81110E948C00EC2FF0E0EE0F89
:1001F000FF1FEE58FF4FA591B4918FB7F894EC9183
:10020000111108C0D095DE23DC938FBFDF91CF9111
:100210001F910895DE2BF8CFCF93DF9390E0FC0180
:10022000E656FF4F24918A579F4FFC018491882303
:10023000D1F090E0880F991FFC01E859FF4FA5917C
:10024000B491FC01EE58FF4FC591D49161110EC0DD
:100250009FB7F8948C91E22FE0958E238C932881A0
:10026000E223E8839FBFDF91CF9108958FB7F89481
:10027000EC91E22BEC938FBFF6CF3FB7F8948091CF
:10028000550190915601A0915701B091580126B5A2
:10029000A89B05C02F3F19F00196A11DB11D3FBFBE
:1002A000BA2FA92F982F8827BC01CD01620F711D8D
:1002B000811D911D42E0660F771F881F991F4A9587
:1002C000D1F70895AF92BF92CF92DF92EF92FF9253
:1002D0000F931F93CF93DF936C017B018B01040F6E
:1002E000151FEB015E01AE18BF08C017D10759F00A
:1002F0006991D601ED91FC910190F081E02DC6014C
:100300000995892B79F7C501DF91CF911F910F9145
:10031000FF90EF90DF90CF90BF90AF900895089539
:1003200090E080E00895FC0101900020E9F731970A
:10033000AF01481B590BBC0189E591E00C946201A7
:10034000CF93DF93EC0160E08E810E94DE0061E0DC
:100350008E810E94DE0060E08E810E94DE008BE8CC
:1003600091E00197F1F7DF91CF910895CF92DF925D
:10037000EF92FF920F931F93CF93DF936C017C0159
:1003800087E0E80EF11CD0E0C0E0062F10E0B801D5
:100390000C2E02C0759567950A94E2F76170F7011B
:1003A00081917F010E94DE002196C430D10579F74A
:1003B000C601DF91CF911F910F91FF90EF90DF90D9
:1003C000CF900C94A001CF92DF92EF92FF920F9307
:1003D0001F93CF93DF93EC01F62E642F8C810E9444
:1003E000DE008D818F3F19F060E00E94DE000F2D4E
:1003F00010E08F8584FF25C06E0187E0C80ED11CF8
:10040000F12CE12CB8010E2C02C0759567950A9469
:10041000E2F76170F60181916F010E94DE00FFEF4B
:10042000EF1AFF0A88E0E816F10461F7CE01DF91C8
:10043000CF911F910F91FF90EF90DF90CF900C9490
:10044000A001B80184E0759567958A95E1F7CE0122
:100450000E94B6016F2DCE01DF91CF911F910F91B8
:10046000FF90EF90DF90CF900C94B60140E0682FA2
:1004700089E591E00C94E301CF93DF93823029F476
:100480009091680198609093680180936C0110923C
:100490006D0180E480936E0180E180936F0180E5BF
:1004A0008093700161E080915D010E940C01809158
:1004B0005E018F3F19F061E00E940C0161E08091C4
:1004C0005F010E940C01C9E5D1E09E012955314030
:1004D0008091680184FD0BC084E090E0219628178C
:1004E000390744F461E08E810E940C01EECF88E070
:1004F00090E0F4CF8BE39DE00197F1F760E080910D
:100500005D010E94DE0060E080915F010E94DE00DC
:1005100080915E018F3F19F060E00E94DE008091C3
:10052000680184FD39C063E089E591E00E94B6016D
:10053000CBE4D6E4CE010197F1F763E089E591E0E1
:100540000E94B6012197F1F763E089E591E00E94EE
:10055000B60183E592E00197F1F762E089E591E069
:100560000E94B6018091680180620E94360284E098
:10057000809369018CE00E94360281E00E9436027D
:100580008BE39FE10197F1F782E080936A0186E0B7
:10059000DF91CF910C94360280620E9436028BE488
:1005A00096E40197F1F78091680180620E9436021B
:1005B00083E592E00197F1F78091680180620E94E3
:1005C0003602D0CFE1E080916C018111E0E0E1954D
:1005D000F0E0E75AFE4F848980680C94360241E0CF
:1005E0000E94E30181E090E008951F920F920FB600
:1005F0000F9211242F933F938F939F93AF93BF93A9
:100600008091510190915201A0915301B0915401F8
:100610003091500123E0230F2D3758F50196A11D8D
:10062000B11D209350018093510190935201A093EA
:100630005301B09354018091550190915601A091BE
:100640005701B09158010196A11DB11D809355012C
:1006500090935601A0935701B0935801BF91AF9169
:100660009F918F913F912F910F900FBE0F901F90F0
:10067000189526E8230F0296A11DB11DD2CF7894BC
:1006800084B5826084BD84B5816084BD85B5826097
:1006900085BD85B5816085BD80916E008160809348
:1006A0006E001092810080918100826080938100B1
:1006B00080918100816080938100809180008160C1
:1006C000809380008091B10084608093B10080911C
:1006D000B00081608093B00080917A008460809344
:1006E0007A0080917A00826080937A0080917A000B
:1006F000816080937A0080917A00806880937A008C
:100700001092C10060E088E00E940C0160E089E086
:100710000E940C0161E08AE00E940C0161E08BE024
:100720000E940C0182E00E943C028CE091E00E9459
:1007300093010E943D014B015C0188EEC82E83E0CD
:10074000D82EE12CF12C0E943D01681979098A0903
:100750009B09683E734081059105A8F321E0C21A08
:10076000D108E108F10888EE880E83E0981EA11CEC
:10077000B11CC114D104E104F10429F781E00E9405
:1007800036028BE39FE10197F1F7C0E0D0E088E00B
:100790000E94B5000197C1F489E00E94B500892B41
:1007A00099F461E08AE00E94DE0060E08BE00E9444
:1007B000DE000E94E2028DE191E00E949301209709
:1007C00031F30E940000E3CF89E00E94B500019759
:1007D00081F089E00E94B500892BE9F089E00E9450
:1007E000B500019761F788E00E94B500019739F7DD
:1007F00017C088E00E94B500892B59F760E08AE0B5
:100800000E94DE0061E08BE00E94DE000E94E202B6
:100810008EE291E0D2CF88E00E94B500892BF1F6FC
:1008200060E08AE00E94DE0060E08BE00E94DE0073
:100830000E94E2028FE391E0C0CFE9E5F1E013828C
:10084000128284E091E09183808382E084838FEF41
:10085000858383E0868384E0878385E0808786E0E4
:10086000818787E082871386148615861686178609
:1008700081E00C943C02EE0FFF1F0590F491E02DF7
:060880000994F894FFCF7B
:1008860000000000EF02620190018F014D6F746F4E
:1008960072202620322052656C61797300432D77D1
:1008A60069736520446972656374696F6E00412DD2
:1008B6007769736520446972656374696F6E004D6C
:1008C6006F746F722053746F7020202020202000D8
:00000001FF
