:100000000C9462000C948A000C948A000C941C07D7
:100010000C941C070C941C070C948A000C948A0006
:100020000C948A000C948A000C948A000C948A0028
:100030000C948A000C948A000C948A000C948A0018
:100040000C947A060C948A000C94EA060C94C4066C
:100050000C948A000C948A000C948A000C948A00F8
:100060000C948A000C948A000000000024002700F1
:100070002A0000000000250028002B0000000000DE
:1000800023002600290004040404040404040202DA
:100090000202020203030303030301020408102007
:1000A0004080010204081020010204081020000012
:1000B0000008000201000003040700000000000027
:1000C00000007F0711241FBECFEFD8E0DEBFCDBFF9
:1000D00013E0A0E0B1E0E2EEF9E102C005900D927C
:1000E000AC38B107D9F724E0ACE8B3E001C01D9209
:1000F000A738B207E1F710E0C2E6D0E004C02197CC
:10010000FE010E94E90CC136D107C9F70E94F5072C
:100110000C94EF0C0C940000DF92EF92FF920F937F
:100120001F93CF93DF93EC018091690490916A044F
:100130006981DC01ED91FC910190F081E02D099540
:100140008091690490916A04DC01ED91FC91019029
:10015000F081E02D688109958091690490916A048D
:10016000DC01ED91FC910190F081E02D6A8109950F
:100170008091690490916A04DC01ED91FC910190F9
:10018000F081E02D6B8109958091690490916A045A
:10019000DC01ED91FC910190F081E02D6C810995DD
:1001A0008091690490916A04DC01ED91FC910190C9
:1001B000F081E02D6D8109958091690490916A0428
:1001C000DC01ED91FC910190F081E02D6E810995AB
:1001D0000F8118850E5F1F4F8091690490916A040A
:1001E000E12EFF24DC01ED91FC910190F081E02DE6
:1001F0006E2D09958091690490916A04DC01ED915E
:10020000FC910190F081E02D602F09950E0D1F2DBE
:10021000111D8E81080F111DD12C809169049091C0
:100220006A04DC01ED91FC910190F081E02DED2C50
:10023000F12C2F813885E216F30660F4EC0EFD1EDA
:10024000D70119966C910995F7018185080F111D49
:10025000D394E3CF612F09958091690490916A044A
:10026000DC01ED91FC910190F081E02D602FDF9198
:10027000CF911F910F91FF90EF90DF900994833001
:1002800081F028F4813099F08230A9F00895873008
:10029000A9F08830C9F08430B1F4809180008F7D5E
:1002A00003C0809180008F7780938000089584B58B
:1002B0008F7784BD089584B58F7DFBCF8091B0008A
:1002C0008F778093B00008958091B0008F7DF9CF33
:1002D000CF93DF93282F30E0F901E255FF4F84914F
:1002E000F901E656FF4FD491F901EA57FF4FC49147
:1002F000CC23A1F081110E943F01EC2FF0E0EE0F22
:10030000FF1FE458FF4FA591B491EC91ED2381E0DC
:1003100090E009F480E0DF91CF91089580E090E0D3
:10032000FACF1F93CF93DF93282F30E0F901E255E6
:10033000FF4F8491F901E656FF4FD491F901EA5736
:10034000FF4FC491CC23A9F0162F81110E943F01C9
:10035000EC2FF0E0EE0FFF1FEE58FF4FA591B49188
:100360008FB7F894EC91111108C0D095DE23DC937F
:100370008FBFDF91CF911F910895DE2BF8CFCF93E0
:10038000DF9390E0FC01E656FF4F24918A579F4F80
:10039000FC0184918823D1F090E0880F991FFC0123
:1003A000E859FF4FA591B491FC01EE58FF4FC5915C
:1003B000D491623071F49FB7F8943C91822F80956C
:1003C00083238C93E8812E2B28839FBFDF91CF91CD
:1003D00008958FB7F894EC912E2B2C938FBFF6CF06
:1003E0003FB7F8948091960390919703A09198035A
:1003F000B091990326B5A89B05C02F3F19F001962F
:10040000A11DB11D3FBFBA2FA92F982F8827BC016E
:10041000CD01620F711D811D911D42E0660F771F96
:10042000881F991F4A95D1F708958F929F92AF9296
:10043000BF92CF92DF92EF92FF924B015C010E943C
:10044000F0016B017C010E94F0016C197D098E099D
:100450009F09683E734081059105A8F321E0821A47
:100460009108A108B10888EEC80E83E0D81EE11CEF
:10047000F11C81149104A104B10429F7FF90EF90BD
:10048000DF90CF90BF90AF909F908F900895EF92A4
:10049000FF920F931F93CF93DF93EC01F12CE12C8C
:1004A00010E000E08091690490916A04DC01ED9114
:1004B000FC910084F185E02D0995892B99F461E088
:1004C00070E080E090E00E941502BFEFEB1AFB0A9B
:1004D00088EEE81683E0F80628F38FEF37C002E0D5
:1004E00010E0E0CF8091690490916A04DC01ED9105
:1004F000FC910284F385E02D09950930110508F07F
:100500003CC0F801EA57FD4F0C94E90C8F029D02A4
:10051000AD02AD02AD02AD02B202B402B7028F3E2F
:1005200009F0C0CF18828983C8010196065F1F4F6A
:100530000034110550F48C01B5CF28813981282B66
:100540003983288321303F4E51F28EEFDF91CF91D6
:100550001F910F91FF90EF900895FE01E00FF11FA2
:100560008083E2CF8E83E0CF1F828887DDCF2F810B
:100570003885282B38872F83D7CFFE01E00FF11F56
:1005800080832F813885C80108978217930761F609
:1005900080E0DCCFAF92BF92CF92DF92EF92FF92DA
:1005A0000F931F93CF93DF936C017B018B01040F9B
:1005B000151FEB015E01AE18BF08C017D10759F037
:1005C0006991D601ED91FC910190F081E02DC60179
:1005D0000995892B79F7C501DF91CF911F910F9173
:1005E000FF90EF90DF90CF90BF90AF900895FC0107
:1005F000538D448D252F30E0842F90E0821B930B88
:10060000541710F0CF96089501970895FC01918D2D
:10061000828D981761F0A28DAE0FBF2FB11D5D9630
:100620008C91928D9F5F9F73928F90E008958FEFD2
:100630009FEF0895FC01918D828D981731F0828D86
:10064000E80FF11D858D90E008958FEF9FEF0895DD
:10065000FC01918D228D892F90E0805C9F4F821B41
:1006600091098F73992708958AE993E00E942803DE
:1006700021E0892B09F420E0822F089580E090E0AA
:10068000892B29F00E94340381110C9400000895F5
:10069000FC01A48DA80FB92FB11DA35ABF4F2C91F7
:1006A000848D90E001968F739927848FA689B789EE
:1006B0002C93A089B1898C91837080648C93938DE5
:1006C000848D981306C00288F389E02D80818F7D88
:1006D00080830895EF92FF920F931F93CF93DF9340
:1006E000EC0181E0888F9B8D8C8D98131AC0E8896E
:1006F000F989808185FF15C09FB7F894EE89FF893D
:100700006083E889F98980818370806480839FBFDA
:1007100081E090E0DF91CF911F910F91FF90EF90DA
:100720000895F62E0B8D10E00F5F1F4F0F731127EA
:10073000E02E8C8D8E110CC00FB607FCFACFE88925
:10074000F989808185FFF5CFCE010E944803F1CF62
:10075000EB8DEC0FFD2FF11DE35AFF4FF0829FB799
:10076000F8940B8FEA89FB8980818062CFCFCF9389
:10077000DF93EC01888D8823B9F0AA89BB89E889C9
:10078000F9898C9185FD03C0808186FD0DC00FB66F
:1007900007FCF7CF8C9185FFF2CF808185FFEDCFED
:1007A000CE010E944803E9CFDF91CF9108950895CB
:1007B00090E080E0089588E00E946801892B41F074
:1007C00088E00E946801892BD9F781E090E00895C4
:1007D00089E00E946801892B41F089E00E9468014C
:1007E000892BD9F782E090E008958AE00E946801A1
:1007F000892B41F08AE00E946801892BD9F783E0B8
:1008000090E008958BE00E946801009739F08BE03A
:100810000E946801892BD9F784E090E00895CF9376
:10082000DF93CDB7DEB7C954D1090FB6F894DEBF58
:100830000FBECDBF21E03FEE3A83298391E09F8335
:1008400022E030E0398728879FEF9B839C839D833C
:100850009E8392E09A878B87CE0101960E948C003E
:10086000CE0101960E94470281110EC08F81873010
:1008700059F48A85C75BDF4F0FB6F894DEBF0FBE11
:10088000CDBFDF91CF91089581E0F4CFCF93DF9377
:10089000CDB7DEB7C954D1090FB6F894DEBF0FBE8D
:1008A000CDBF81E09FEE9A83898391E09F8321E011
:1008B00030E0398728878FEF8B838C838D838E83FD
:1008C0009A87CE0101960E948C00CE0101960E946B
:1008D000470281110EC08F81873059F48A85C75B2A
:1008E000DF4F0FB6F894DEBF0FBECDBFDF91CF91C3
:1008F000089581E0F4CFCF93DF93EC0160E08E8127
:100900000E94910161E08E810E94910160E08E81E0
:100910000E9491018BE891E00197F1F7DF91CF916F
:100920000895CF92DF92EF92FF920F931F93CF9390
:10093000DF936C017C0187E0E80EF11CD0E0C0E0A1
:10094000062F10E0B8010C2E02C0759567950A9429
:10095000E2F76170F70181917F010E949101219678
:10096000C430D10579F7C601DF91CF911F910F9166
:10097000FF90EF90DF90CF900C947B04CF92DF92AA
:10098000EF92FF920F931F93CF93DF93EC01F62E1C
:10099000642F8C810E9491018D818F3F19F060E05E
:1009A0000E9491010F2D10E08F8584FF25C06E01FC
:1009B00087E0C80ED11CF12CE12CB8010E2C02C02E
:1009C000759567950A94E2F76170F60181916F0160
:1009D0000E949101FFEFEF1AFF0A88E0E816F10488
:1009E00061F7CE01DF91CF911F910F91FF90EF90B2
:1009F000DF90CF900C947B04B80184E075956795E7
:100A00008A95E1F7CE010E9491046F2DCE01DF910E
:100A1000CF911F910F91FF90EF90DF90CF900C94AA
:100A2000910440E0682F8FE694E00C94BE0481E0CE
:100A30000E9411058BE39FE10197F1F70895CF9391
:100A4000DF93823029F490917E04986090937E0425
:100A5000809382041092830480E48093840480E174
:100A60008093850480E58093860461E0809173041F
:100A70000E94BF01809174048F3F19F061E00E94D1
:100A8000BF0161E0809175040E94BF01CFE6D4E010
:100A90009E012F56344080917E0484FD0BC084E07B
:100AA00090E021962817390744F461E08E810E9476
:100AB000BF01EECF88E090E0F4CF8BE39DE001979B
:100AC000F1F760E0809173040E94910160E08091F1
:100AD00075040E949101809174048F3F19F060E0C9
:100AE0000E94910180917E0484FD34C063E08FE612
:100AF00094E00E949104CBE4D6E4CE010197F1F793
:100B000063E08FE694E00E9491042197F1F763E09F
:100B10008FE694E00E94910483E592E00197F1F75B
:100B200062E08FE694E00E94910480917E048062EE
:100B30000E94110584E080937F048CE00E941105DF
:100B40000E94170582E08093800486E0DF91CF91B8
:100B50000C94110580620E9411058BE496E40197C4
:100B6000F1F780917E0480620E94110583E592E096
:100B70000197F1F780917E0480620E941105D5CF24
:100B800090918204891710F08FEF890FE82FF0E021
:100B9000E159FB4F848980680C94110541E00E9463
:100BA000BE0481E090E00895CF93DF93809190039D
:100BB000823088F0C0919003CC2369F0C150C0937B
:100BC0009003D0E0CE010E94B10C813099F7CE01A4
:100BD000DF91CF910895C0919003C13A10F4D0E015
:100BE000F6CFD0E0C0E0F3CFCF93DF93C091900376
:100BF000C13A68F4CF5FC0939003D0E0CE010E9469
:100C0000B10C813099F7CE01DF91CF910895D0E0FA
:100C1000C0E0F9CFFB0101900020E9F73197AF0167
:100C2000461B570BDC01ED91FC910280F381E02D16
:100C300009948F929F92AF92BF92EF92FF920F937F
:100C40001F93CF93DF93CDB7DEB7A1970FB6F8947C
:100C5000DEBF0FBECDBF7C01FA01CB0119A222304D
:100C600008F42AE08E010F5D1F4F822E912CB12CCB
:100C7000A12CBF01A50194010E94C70CF901CA0172
:100C80006A300CF5605DD8016E938D01232B242B07
:100C9000252B79F790E080E0109721F0BD01C70186
:100CA0000E940A06A1960FB6F894DEBF0FBECDBF14
:100CB000DF91CF911F910F91FF90EF90BF90AF9078
:100CC0009F908F900895695CDECFCF93DF93BC0136
:100CD0008AE993E00E940A06EC0165E271E08AE984
:100CE00093E00E940A068C0F9D1FDF91CF9108951B
:100CF0000C940A061F920F920FB60F9211242F9395
:100D00003F938F939F93AF93BF9380919203909162
:100D10009303A0919403B09195033091910323E044
:100D2000230F2D3758F50196A11DB11D2093910376
:100D30008093920390939303A0939403B0939503AD
:100D40008091960390919703A0919803B091990395
:100D50000196A11DB11D8093960390939703A093D4
:100D60009803B0939903BF91AF919F918F913F9159
:100D70002F910F900FBE0F901F90189526E8230F0C
:100D80000296A11DB11DD2CF1F920F920FB60F92E6
:100D900011242F933F934F935F936F937F938F9380
:100DA0009F93AF93BF93EF93FF938AE993E00E94E1
:100DB0004803FF91EF91BF91AF919F918F917F91E8
:100DC0006F915F914F913F912F910F900FBE0F90B8
:100DD0001F9018951F920F920FB60F9211242F9308
:100DE0008F939F93EF93FF93E091AA03F091AB034E
:100DF0008081E091B003F091B10382FD1BC090812E
:100E00008091B3038F5F8F732091B403821741F0F9
:100E1000E091B303F0E0E656FC4F958F8093B30367
:100E2000FF91EF919F918F912F910F900FBE0F9097
:100E30001F9018958081F4CF1F920F920FB60F92DA
:100E400011242F933F938F939F93AF93BF93CF938F
:100E5000DF93EF93FF93E0918E03F0918F03309730
:100E600049F0A685B7859585868D81FF12C08C9146
:100E7000892391F4FF91EF91DF91CF91BF91AF91D1
:100E80009F918F913F912F910F900FBE0F901F90C8
:100E900018958C91892371F7A389B4899C918589D0
:100EA000809589238C93868997890197F1F7208D06
:100EB000318DC685D78588E0D9011197F1F79881E2
:100EC0008150D1F780918D0390E001968F7399271F
:100ED00020918C03281779F090918D0380938D03D6
:100EE000828D938D0197F1F7A389B4898C919589AF
:100EF000892B8C93BFCF868D8160868FF1CFCF9366
:100F0000DF93CAE9D3E01B821A8288EE93E0A0E067
:100F1000B0E08C839D83AE83BF838BE091E09983A7
:100F2000888385EC90E09D878C8784EC90E09F8798
:100F30008E8780EC90E0998B888B81EC90E09B8B86
:100F40008A8B82EC90E09D8B8C8B86EC90E09F8B63
:100F50008E8B198E1A8E1B8E1C8EEFE6F4E0138298
:100F600012828DE191E09183808387E084838FEF0B
:100F7000858386E0868385E0878384E0808783E0BD
:100F8000818782E0828713861486158616861786E7
:100F900081E00E941F05E7E3F4E0178216821186C4
:100FA000108620E430E033872287158614868FEF81
:100FB0009FEFDC0186879787A08BB18B338B228BC9
:100FC00020E031EE358B248B168A178A108E118E15
:100FD000828F938FA48FB58F15AA14AAD7ABC6ABF7
:100FE000D3ABC2ABDF91CF910895CF93DF93CDB751
:100FF000DEB7CF54D1090FB6F894DEBF0FBECDBF18
:10100000789484B5826084BD84B5816084BD85B5E3
:10101000826085BD85B5816085BD80916E008160EF
:1010200080936E0010928100809181008260809395
:101030008100809181008160809381008091800097
:101040008160809380008091B10084608093B100C2
:101050008091B00081608093B00080917A008460BC
:1010600080937A0080917A00826080937A008091E8
:101070007A00816080937A0080917A008068809302
:101080007A001092C10062E088E00E94BF0162E035
:1010900089E00E94BF0162E08AE00E94BF0162E035
:1010A0008BE00E94BF0182E00E941F0568E271E0B0
:1010B0008FE694E00E94780681E00E94C00565E317
:1010C00071E08FE694E00E94780664EF71E080E0C2
:1010D00090E00E94150268EE73E080E090E00E94CC
:1010E0001502E0916D04F0916E04309741F1A089F2
:1010F000B18982E08C93A089B1891C92A485B585C1
:101100001C92A685B78580E18C93108EA489B58941
:1011100086E08C93A289B3898C9180618C93A2899B
:10112000B3898C9188608C93A289B3898C918068F3
:101130008C930288F389E02D80818F7D8083E091FC
:101140006B04F0916C04309709F477C0138E128E03
:10115000118E108E178A168A82E490E0958F848F04
:101160008485863108F03DC02FE030E0378B268B38
:1011700020E430E0318F208F27E230E0338F228F60
:1011800090916800883008F490C021E08E3008F417
:1011900020E081E001C0880F2A95EAF7892B80932F
:1011A000680094852DE630E0983050F02BE630E072
:1011B0009E3030F02CE630E0963110F030E020E048
:1011C000348B238B292F30E0983008F070C081E0F9
:1011D00001C0880F9A95EAF7858B848D958D0197CC
:1011E000F1F7828D938D892B41F140918E035091BF
:1011F0008F03E417F50709F14115510569F0DA018C
:1012000053962D913C91D9019C91DA0155968C9180
:1012100080958923D9018C93868D8E7F868F10923D
:101220008D0310928C03F0938F03E0938E03A389B8
:10123000B4898C919589892B8C93EE24E3949FEE4D
:10124000F92E25E0C22ED12C8CE0B82E1FEF0E9483
:10125000170580E00E94C00565E471E08FE694E028
:101260000E94780681E00E94C00566E571E08FE685
:1012700094E00E9478060E94DB030097E1F381303E
:10128000910509F0B2C181E0809300010091000155
:10129000013AD0F4802E912CC4010E94B10C882315
:1012A000A9F00F5F00930001F1CF84E077CF9E306B
:1012B00040F42850310981E001C0880F2A95EAF7EF
:1012C0008BCF2E503109F7CF912C812C80920001C9
:1012D000892869F50E94170580E00E94C0056EE527
:1012E00071E08FE694E00E94780681E00E94C005DC
:1012F00067E671E08FE694E00E94780668EE73E09E
:1013000080E090E00E9415026CED75E080E090E0D6
:101310000E94150280E090E0892B09F498CF0E948A
:101320003403882309F490CF0E9400008DCF65E735
:1013300071E08FE694E00E9478060E9446048130B6
:1013400029F148F08230E9F0833029F10E94170535
:1013500068EB71E0EECF0E94170568E871E08FE658
:1013600094E00E94780681E00E940F04863009F420
:101370005CC008F0D4C1882399F0813009F417C10A
:1013800051C10E94170564E971E0D3CF0E9417058F
:1013900066E971E0CECF0E9417056AEA71E0C9CF15
:1013A0000E94170566EC71E08FE694E00E947806D3
:1013B0000E94170566ED71E08FE694E00E947806C2
:1013C00060ED77E080E090E00E9415020E94460404
:1013D0008230E1F70E94170568E172E08FE694E041
:1013E0000E9478064091000150E070E060E02AE041
:1013F0008FE694E00E9419060E9417056CE172E0E6
:101400008FE694E00E9478060E944604813009F439
:10141000BDC0A0F0823009F4B4C0833009F4BBC071
:101420000E94170568EB71E0EBCF0E94170564EE90
:1014300071E08FE694E00E94780666CF0E9417055F
:1014400068E871E08FE694E00E94780682E00E94EE
:101450000F04863051F308F062C181118ECF0E94D3
:10146000170566EC71E08FE694E00E9478060E9412
:10147000170564E372E08FE694E00E9478064091DD
:10148000000150E070E060E02AE08FE694E00E9406
:101490001906FA82E98281E08F8381E090E09987E2
:1014A00088871B831C831D831E8385E08A87CE016A
:1014B00001960E948C00CE0101960E944702811184
:1014C0006FC08F81873009F06BC08A8590E00097EC
:1014D00009F06AC00E94170565E472E08FE694E0A7
:1014E0000E9478060E94170568E172E08FE694E09A
:1014F0000E9478064091000150E070E060E02AE030
:101500008FE694E00E94190690910001FA82E98228
:1015100081E08F8324E030E0398728871B831C8398
:101520001D831E8326E02A878B871C869D87CE011C
:1015300001960E948C00CE0101960E944702811103
:1015400031C08F81873071F58A8590E00097D9F599
:101550000E94170560E772E08FE694E00E9478062B
:101560004091000150E070E060E02AE08FE694E0F6
:101570000E9419068091000161E090E00E94B90C80
:10158000C3CE0E94170564E971E03ACF0E941705A7
:1015900066E971E035CF0E9417056AEA71E030CF45
:1015A00081E094CF81E0D1CF8130910529F40E9470
:1015B000170566E971E03DCF0A97A1F50E9417056E
:1015C00065E572E036CF8130910589F38B30910566
:1015D00029F40E9417056EE772E02BCF489711F5AA
:1015E0000E9417056FE972E024CF8230910509F05F
:1015F000B5C00E94170566EB72E08FE694E00E948A
:1016000078066CED75E080E090E00E9415020E9483
:101610004604813061F258F0823009F48AC0833088
:1016200009F48CC00E94170568EB71E002CF0E949C
:10163000170568E871E08FE694E00E94780681E083
:101640000E940F04863009F4F0CE08F068C08111C2
:1016500094CE0E94170566EC71E08FE694E00E943C
:10166000780686E0E1E0F1E0DE01A65BBF4F019085
:101670000D928A95E1F7FA82E98281E08F8386E014
:1016800090E0998788871B831C831D831E83FE013E
:10169000E65BFF4FDE011A9601900D928A95E1F705
:1016A000CE0101960E948C00CE0101960E94470255
:1016B00081117DCF8F81873009F079CF8B859C8513
:1016C00098278927982790933804809337048D852D
:1016D0009E8598278927982790933A048093390408
:1016E0008A85811130C00E94170566ED72E08FE691
:1016F00094E00E9478060E9417056BEE72E08FE678
:1017000094E00E947806409137045091380470E0CC
:1017100060E02AE08FE694E00E941906F5CD87305C
:1017200019F0853109F07ECF0E94170564EF71E052
:1017300080CE0E94170563EC72E07BCE0E941705F5
:101740006AEA71E076CE813009F431CF893009F050
:1017500069CF0E94170566EF72E06BCE833091056A
:1017600009F0D2C00E94170580E00E94C0050E94C7
:10177000F405809390036BE073E08FE694E00E94A1
:1017800078064091900350E070E060E02AE08FE638
:1017900094E00E94190660E173E08FE694E00E94F5
:1017A000780662E173E08FE694E00E94780681E0BB
:1017B0000E94C00569E173E08FE694E00E9478061C
:1017C000992493940E94DB03049709F49DCD0E9411
:1017D000DB03029711F50E94DB030297E1F30E94FD
:1017E000F4058093900380E00E94C0056BE073E0F5
:1017F0008FE694E00E9478064091900350E070E0FC
:1018000060E02AE08FE694E00E9419066AE273E045
:101810008FE694E00E947806D5CF0E94DB03039701
:1018200039F40E94DB030397E1F30E94D405D9CF7A
:101830000E94DB03019731F60E94DB030197E1F37D
:10184000809190032F961DAE1EAE1FAE2F97FA8289
:10185000E9829F82D986C8861B831C831D831E83D1
:101860002B96BFAE2B972C961FAE2C972D968FAF35
:101870002D972F969FAE2F9785E0FE01E65BFF4FD9
:10188000DE011A9601900D928A95E1F7CE0101963C
:101890000E948C00CE0101960E94470281110AC06D
:1018A0008F81873039F40A8583E393E0002321F0A8
:1018B000013059F486E991E00E9465068091900319
:1018C00060E090E00E94B90CB0CF8CE393E00B3065
:1018D00099F3083119F48FE992E0EECF6EE573E0E9
:1018E0008AE993E00E947806402F50E070E060E0C3
:1018F00020E18AE993E00E94190665E271E08AE935
:1019000093E00E940A06DACF049709F003CD0E9403
:10191000170580E00E94C00560E773E08FE694E061
:101920000E94780664EF71E080E090E00E9415026A
:101930000E94170580E00E94C00569E773E08FE60A
:1019400094E00E94780681E00E94C00565E873E09B
:101950008FE694E00E94780668EE73E080E090E005
:10196000D7CCF999FECF92BD81BDF89A992780B561
:101970000895262FF999FECF1FBA92BD81BD20BDD3
:101980000FB6F894FA9AF99A0FBE01960895A1E25B
:101990001A2EAA1BBB1BFD010DC0AA1FBB1FEE1FE9
:1019A000FF1FA217B307E407F50720F0A21BB30B34
:1019B000E40BF50B661F771F881F991F1A9469F7B0
:1019C00060957095809590959B01AC01BD01CF010C
:1019D0000895EE0FFF1F0590F491E02D0994F894FF
:0219E000FFCF37
:1019E200011B01000000A3000000006A03CA02F705
:1019F20002B703280306031A0300000000CE05CA3B
:101A020002D803D7030D0A002046494E47455250DB
:101A120052494E5400415454454E44414E43452090
:101A220044454D4F00313A456E726F6C6C20323A2C
:101A32005363616E2000333A44656C2020004E6F80
:101A42002073706163650044656C2074656D706C11
:101A5200657465730057616974696E6720666F7299
:101A62002066696E67657200496D61676520746101
:101A72006B656E002E00436F6D6D756E69636174E8
:101A8200696F6E206572726F7200496D6167696E6F
:101A920067206572726F7200556E6B6E6F776E2083
:101AA2006572726F7200496D61676520636F6E7651
:101AB20065727465640052656D6F76652066696E45
:101AC20067657200496D61676520746F6F206D658F
:101AD20073737900436F756C64206E6F742066694E
:101AE2006E642066696E6765727072696E742066D4
:101AF200656174757265730049442000506C6163BE
:101B0200652073616D652066696E67657220616725
:101B120061696E004372656174696E67206D6F64FE
:101B2200656C2023005072696E7473206D6174635A
:101B3200686564210046696E6765727072696E74C9
:101B42007320646964206E6F74206D617463680031
:101B520053746F7265642061742069642000436F5E
:101B6200756C64206E6F742073746F726520696E79
:101B72002074686174206C6F636174696F6E0045D4
:101B820072726F722077726974696E6720746F2047
:101B9200666C61736800506C6163652046696E67AC
:101BA2006572004E6F2066696E67657220646574A7
:101BB200656374656400466F756E6420612070729F
:101BC200696E74206D617463682100466F756E647E
:101BD200204944202300446964206E6F74206669A2
:101BE2006E642061206D61746368004944203C008A
:101BF2003E0020313A44656C00323A557020333A47
:101C0200446E20343A4261636B003E2020312D4401
:101C1200656C0044656C657465642100436F756C86
:101C220064206E6F742064656C65746520696E2033
:101C320074686174206C6F636174696F6E00556EB5
:101C42006B6E6F776E206572726F723A2030780019
:101C5200437265646974733A004D414E414E2041AE
:0C1C6200484D45440042524F54490000D8
:00000001FF
