:100000000C9434000C943E000C943E000C943E0082
:100010000C943E000C943E000C943E000C943E0068
:100020000C943E000C943E000C943E000C94920004
:100030000C943E000C943E000C943E000C943E0048
:100040000C943E000C943E000C943E000C943E0038
:100050000C943E000C943E000C943E000C943E0028
:100060000C943E000C943E0011241FBECFEFD8E04C
:10007000DEBFCDBF0E9447000C949E000C94000090
:100080002D9A109285001092840078940895109211
:10009000C50083E38093C40088E18093C10086E0BB
:1000A0008093C200E1E8F0E080818C608083EFE61D
:1000B000F0E08081826080838AE698E190938900F5
:1000C00080938800789484B5826084BD85B585600E
:1000D00085BD87E087BD259A96B5C0ECD0E00F2E90
:1000E000F6ECEF2EF12CF02D88818823ECF7F70148
:1000F00080818335C9F716B5191303C016B51917D2
:10010000E9F3888185FFFDCF81E3810FF7018083CB
:100110000E9440008FE19EE40197F1F700C00000CB
:10012000912FE2CF1F920F920FB60F9211242D98AC
:10013000F8940F900FBE0F901F901895F894FFCF72
:00000001FF
