:100000000C945D000C9485000C9485000C94850084
:100010000C9485000C9485000C9485000C9485004C
:100020000C9485000C9485000C9485000C9485003C
:100030000C9485000C9485000C9485000C9485002C
:100040000C94F4040C9485000C9485000C948500A9
:100050000C9485000C9485000C9485000C9485000C
:100060000C943E050C94850000000008000201007D
:100070000003040700000000000000000000000072
:10008000250028002B0000000000240027002A0083
:10009000040404040404040402020202020203032E
:1000A0000303030301020408102040800102040836
:1000B00010200102040810205D0611241FBECFEF9E
:1000C000D8E0DEBFCDBF11E0A0E0B1E0EEEFF0E19F
:1000D00002C005900D92AE32B107D9F722E0AEE230
:1000E000B1E001C01D92AB31B207E1F710E0CDE500
:1000F000D0E004C02197FE010E947708CC35D107DB
:10010000C9F70E948B060C947D080C94000090E0C7
:10011000FC01EC55FF4F249180579F4FFC018491C7
:10012000882399F090E0880F991FFC01EA57FF4F50
:10013000A591B491FC01E458FF4F859194918FB73C
:10014000F894EC91E22BEC938FBF089508950895F5
:10015000AF92BF92CF92DF92EF92FF920F931F93D5
:10016000CF93DF936C017B018B01040F151FEB0113
:100170005E01AE18BF08C017D10759F06991D601CA
:10018000ED91FC910190F081E02DC6010995892B3C
:1001900079F7C501DF91CF911F910F91FF90EF90FB
:1001A000DF90CF90BF90AF90089590E0FC01E859A8
:1001B000FF4F2491FC01EC55FF4F3491FC01E057B7
:1001C000FF4FE491EE23C9F0222339F0233001F1EF
:1001D000A8F4213019F1223029F1F0E0EE0FFF1FD1
:1001E000E458FF4FA591B4918FB7F894EC91611149
:1001F00026C030953E233C938FBF08952730A9F049
:100200002830C9F0243049F7809180008F7D03C0E9
:10021000809180008F7780938000DFCF84B58F77C7
:1002200084BDDBCF84B58F7DFBCF8091B0008F770D
:100230008093B000D2CF8091B0008F7DF9CF3E2B5C
:10024000DACF3FB7F8948091770190917801A0912F
:100250007901B0917A0126B5A89B05C02F3F19F00E
:100260000196A11DB11D3FBFBA2FA92F982F882736
:10027000BC01CD01620F711D811D911D42E0660F11
:10028000771F881F991F4A95D1F7089508952091E7
:100290004F01260F3327331F21323105ECF4209113
:1002A000CD01FC0190E080E0243069F082E0089507
:1002B000A0914F012191AC01415D5E4FA40FB52F7C
:1002C000B11D2C930196861798F380914F01680F0A
:1002D00060934F0180E0089581E008951092CD0170
:1002E00081E08093CC011092A70161E082E10E943D
:1002F000D50061E083E10E94D500E9EBF0E0808168
:100300008E7F808380818D7F808388E48093B80096
:1003100085E48093BC000895CF93DF9391E09093A0
:100320002E018823B9F0C091B800D091BA00809115
:10033000BC008A7B8093BC0060E082E10E94D50013
:1003400060E083E10E94D5000E946E01D093BA0064
:10035000C093B800DF91CF910895CF92DF92EF92D2
:10036000FF920F931F93CF93DF93D091F60181E01B
:10037000D13208F09CC0C091F5010E9421016B01AF
:100380007C018091CD0181116CC082E08093CD0110
:1003900081E08093CC018FEF8093CB011092CA0152
:1003A000D093C901A5EDB1E0E9EAF1E080E0D8130E
:1003B0008DC01092A8018091A801CC0FC82BC093CA
:1003C000A8018091A701813009F084C01092A70193
:1003D0000E9421016B017C018091A8018093BB00E8
:1003E0008091CF019091D001A091D101B091D20123
:1003F000892B8A2B8B2BA1F00E9421010091CF0128
:100400001091D0012091D1013091D2016C197D0958
:100410008E099F09061717072807390708F442C0F5
:100420008091BC0083FDD8CF85EC8093BC000E94F6
:1004300021016B017C018091CD01823009F44CC017
:100440008091CB018F3F09F469C08091CB0180324C
:1004500009F466C08091CB01803309F463C084E065
:1004600026C08091CF019091D001A091D101B0918F
:10047000D201892B8A2B8B2B09F483CF0E94210177
:100480000091CF011091D0012091D1013091D20182
:100490006C197D098E099F09061717072807390768
:1004A00008F06FCF8091CE010E948C0185E0109200
:1004B000D4011092F6011092D301DF91CF911F91D8
:1004C0000F91FF90EF90DF90CF9008959D919193C1
:1004D0008F5F6DCF85EEA9CF8091CF019091D00134
:1004E000A091D101B091D201892B8A2B8B2B09F4D9
:1004F000A2CF0E9421010091CF011091D001209143
:10050000D1013091D2016C197D098E099F0906171E
:1005100017072807390708F08ECFC4CF80E0C7CF70
:1005200082E0C5CF83E0C3CF0895E0918001809140
:100530007F01E81730F4F0E0EF57FE4F808190E044
:1005400008958FEF9FEF08959091800180917F0132
:100550002FEF3FEF981748F4E92FF0E0EF57FE4FE9
:10056000208130E09F5F90938001C90108958091C0
:100570007F0190918001891B990B0895CF92DF92A2
:10058000EF92FF920F931F93CF93DF937C01CB01E8
:100590008A012091D301222389F0EB016B01C40E63
:1005A000D51ECC15DD0569F06991D701ED91FC915F
:1005B0000190F081E02DC7010995F3CF642F0E94CF
:1005C0004701C801DF91CF911F910F91FF90EF90EC
:1005D000DF90CF900895CF93DF931F92CDB7DEB712
:1005E00069832091D3012223F9F02091F601203272
:1005F00058F021E030E0FC013383228390E080E07A
:100600000F90DF91CF9108958091D401E82FF0E011
:10061000EB52FE4F998190838F5F8093D40180933A
:10062000F60181E090E0ECCF61E0CE0101960E94FE
:100630004701F7CF90E080E008958F929F92AF92AC
:10064000BF920F931F93CF93DF93CDB7DEB7A197E0
:100650000FB6F894DEBF0FBECDBF19A2423008F42A
:100660004AE08E010F5D1F4F842E912CB12CA12CDE
:10067000A50194010E945508E62FB901CA01EA308C
:1006800044F5E05DD801EE938D01232B242B252B1F
:1006900079F790E080E0109769F0FD01019000206B
:1006A000E9F73197AF014A1B5B0BBD0183E092E094
:1006B0000E94A800A1960FB6F894DEBF0FBECDBF72
:1006C000DF91CF911F910F91BF90AF909F908F902E
:1006D0000895E95CD7CFFC0101900020E9F731973C
:1006E000AF01481B590BBC0183E092E00C94A800B9
:1006F000CF93DF93EC0160E08E810E94D50061E032
:100700008E810E94D50060E08E810E94D5008BE82A
:1007100091E00197F1F7DF91CF910895CF92DF92A9
:10072000EF92FF920F931F93CF93DF936C017C01A5
:1007300087E0E80EF11CD0E0C0E0062F10E0B80121
:100740000C2E02C0759567950A94E2F76170F70167
:1007500081917F010E94D5002196C430D10579F79F
:10076000C601DF91CF911F910F91FF90EF90DF9025
:10077000CF900C947803CF92DF92EF92FF920F9379
:100780001F93CF93DF93EC01F62E642F8C810E9490
:10079000D5008D818F3F19F060E00E94D5000F2DAC
:1007A00010E08F8584FF25C06E0187E0C80ED11C44
:1007B000F12CE12CB8010E2C02C0759567950A94B6
:1007C000E2F76170F60181916F010E94D500FFEFA1
:1007D000EF1AFF0A88E0E816F10461F7CE01DF9115
:1007E000CF911F910F91FF90EF90DF90CF900C94DD
:1007F0007803B80184E0759567958A95E1F7CE0195
:100800000E948E036F2DCE01DF91CF911F910F912A
:10081000FF90EF90DF90CF900C948E0340E0682F14
:1008200083E092E00C94BB03CF93DF93823029F4F2
:100830009091120298609093120280931602109287
:10084000170280E48093180280E18093190280E50A
:1008500080931A02809107020E948700809108020B
:100860008F3F11F00E948700809109020E9487004B
:10087000C3E0D2E09E01235032408091120284FDF9
:100880000AC084E090E02196281739073CF48E8155
:100890000E948700EFCF88E090E0F5CF8BE39DE0EA
:1008A0000197F1F760E0809107020E94D50060E0B7
:1008B000809109020E94D500809108028F3F19F0B3
:1008C00060E00E94D5008091120284FD39C063E08F
:1008D00083E092E00E948E03CBE4D6E4CE01019740
:1008E000F1F763E083E092E00E948E032197F1F735
:1008F00063E083E092E00E948E0383E592E001973B
:10090000F1F762E083E092E00E948E038091120290
:1009100080620E940E0484E0809313028CE00E94A7
:100920000E0481E00E940E048BE39FE10197F1F732
:1009300082E08093140286E0DF91CF910C940E0444
:1009400080620E940E048BE496E40197F1F7809197
:10095000120280620E940E0483E592E00197F1F793
:100960008091120280620E940E04D0CF41E00E946A
:10097000BB0381E090E0089585ED8093BC008091F9
:10098000CF019091D001A091D101B091D2010796F1
:10099000A11DB11D23E0B695A795979587952A953A
:1009A000D1F72091BC0024FD03C01092CD01089521
:1009B0004091CF015091D0016091D1017091D2014D
:1009C000452B462B472B69F30097A105B10541F054
:1009D0002AE22A95F1F700C00197A109B109E1CFF8
:1009E0008091CE010C948C011F920F920FB60F9242
:1009F00011242F933F938F939F93AF93BF93809135
:100A0000730190917401A0917501B09176013091BC
:100A1000720123E0230F2D3758F50196A11DB11D5A
:100A2000209372018093730190937401A0937501D8
:100A3000B09376018091770190917801A09179012E
:100A4000B0917A010196A11DB11D80937701909319
:100A50007801A0937901B0937A01BF91AF919F91F2
:100A60008F913F912F910F900FBE0F901F9018956F
:100A700026E8230F0296A11DB11DD2CF1F920F921F
:100A80000FB60F9211242F933F934F935F936F9361
:100A90007F938F939F93AF93BF93EF93FF93809137
:100AA000B900887F803609F44AC0F0F5883209F42D
:100AB000A7C018F5803109F49BC0B8F4882309F465
:100AC000F9C0883009F494C0FF91EF91BF91AF91C4
:100AD0009F918F917F916F915F914F913F912F9156
:100AE0000F900FBE0F901F901895883109F488C0A1
:100AF000803251F78093CB0114C0803409F49DC03B
:100B000040F48033B9F38833F9F68093CB0185EC58
:100B1000B0C0803509F485C0883509F496C08834A2
:100B200099F60E94BC04D0CF883909F48CC038F5FE
:100B3000883729F050F4883611F0803729F683E0A1
:100B40008093CD011092710157C0883809F47BC0A1
:100B5000803919F0803809F0B7CF80917101803267
:100B600008F071C0E091710181E08E0F80937101F6
:100B70008091BB00F0E0EF5AFE4F80833DC0803B88
:100B800039F0E0F4803A09F479C0883A09F09CCF52
:100B900084E08093CD011092500110924F01E091BA
:100BA0007D01F0917E01099580914F0181110FC067
:100BB00081E080934F0110922F0109C0803C09F41D
:100BC000A6CF883C09F4A3CF883B09F07DCFE09104
:100BD000500181E08E0F80935001F0E0E15DFE4F07
:100BE00080818093BB009091500180914F0129C07A
:100BF0008091A8018093BB0085EC8093BC0064CFFA
:100C00009091CA018091C901981758F5E091CA01E5
:100C100081E08E0F8093CA01F0E0E755FE4F80819E
:100C2000E9CFE091CA0181E08E0F8093CA018091E3
:100C3000BB00F0E0E755FE4F80839091CA018091A0
:100C4000C9019817C8F285E8D8CFE091CA0181E0C0
:100C50008E0F8093CA018091BB00F0E0E755FE4FF4
:100C600080838091CC0181115CCF81E08093A701CA
:100C700084EA8093BC001092CD0126CF85EC80934E
:100C8000BC001092CD0180917101803230F4E0916E
:100C90007101F0E0EF5AFE4F10826091710170E037
:100CA000E0917B01F0917C0181E591E00995109242
:100CB00071010ACF1092CB0134CFE7EFF1E013823C
:100CC000128288EE93E0A0E0B0E084839583A6834F
:100CD000B78384E091E091838083E3E0F2E01382C4
:100CE000128286E191E09183808382E084838FEF9A
:100CF000858383E0868384E0878385E0808786E040
:100D0000818787E082871386148615861686178664
:100D100081E00C941404789484B5826084BD84B519
:100D2000816084BD85B5826085BD85B5816085BDE6
:100D300080916E00816080936E001092810080919E
:100D40008100826080938100809181008160809326
:100D50008100809180008160809380008091B1004B
:100D600084608093B1008091B00081608093B00076
:100D700080917A00846080937A0080917A0082600A
:100D800080937A0080917A00816080937A008091CC
:100D90007A00806880937A001092C10010928001DE
:100DA00010927F011092D4011092F6010E946E0100
:100DB00086EA90E090937E0180937D0187EA90E03F
:100DC00090937C0180937B0182E00E9414048EE169
:100DD00091E00E946B03C1E098E6792E25EE622E29
:100DE00035EC532EDAE000E010E044244A9442E06F
:100DF000342EC093D3017092F5011092D401109259
:100E0000F60160E087EF91E00E94EB020E94AD01E5
:100E10000E9421016B017C018091CD01811161C093
:100E2000C093CD01C093CC014092CB011092CA0176
:100E30003092C901C093A8018091A801806D809370
:100E4000A8018091A701813009F006C11092A70185
:100E50000E9421016B017C018091A8018093BB005D
:100E60008091CF019091D001A091D101B091D20198
:100E7000892B8A2B8B2BA1F00E9421018090CF011E
:100E80009090D001A090D101B090D2016C197D0951
:100E90008E099F0986169706A806B90608F442C06F
:100EA0008091BC0083FDD8CF5092BC000E942101EC
:100EB0006B017C018091CD01813009F4D0C080911B
:100EC000CA01833008F0EDC08091CA01A9EAB1E0FF
:100ED000E1E8F1E090E0981751F12D9121939F5FA7
:100EE000FACF8091CF019091D001A091D101B09122
:100EF000D201892B8A2B8B2B09F48ECF0E942101E2
:100F00008090CF019090D001A090D101B090D201FB
:100F10006C197D098E099F0986169706A806B906E1
:100F200008F07ACF8091CE010E948C0180E010926F
:100F3000800180937F0187EF91E00E94A402D82E68
:100F40008093A60187EF91E00E94A402E82E80938F
:100F5000A50187EF91E00E94A402F82E8093A401DE
:100F60000E94AD018D2D82958F702D2D2F70D22E68
:100F70008D9FD00C1124D092A3018E2D82958F705D
:100F80009E2D9F70E92E8D9FE00C1124E092A2010E
:100F90008F2D82958F702F2D2F70F22E8D9FF00C3C
:100FA0001124F092A101E0911602E23008F07BC01A
:100FB000E150F0E0ED5FFD4F84898C5F80680E9416
:100FC0000E046F2D70E090E080E04AE00E941D0367
:100FD0008CE291E00E946B036091A20170E090E0CE
:100FE00080E04AE00E941D038CE291E00E946B03C6
:100FF0006091A30170E090E080E04AE00E941D0350
:101000000E9421014B015C0188EEC82E83E0D82E9E
:10101000E12CF12C0E942101681979098A099B09A8
:10102000683E734081059105A8F381E0C81AD10894
:10103000E108F10898EE890E93E0991EA11CB11CFD
:10104000C114D104E104F10429F70115110509F4D3
:10105000D0CE0E940000CDCE6092BC0027CF809100
:10106000CF019091D001A091D101B091D201892BF3
:101070008A2B8B2B09F41ECF0E9421018090CF0177
:101080009090D001A090D101B090D2016C197D094F
:101090008E099F0986169706A806B90608F00ACF9A
:1010A00041CF83E013CFE1E084CFA1E21A2EAA1B47
:1010B000BB1BFD010DC0AA1FBB1FEE1FFF1FA21708
:1010C000B307E407F50720F0A21BB30BE40BF50B05
:1010D000661F771F881F991F1A9469F7609570958E
:1010E000809590959B01AC01BD01CF010895EE0F55
:0E10F000FF1F0590F491E02D0994F894FFCFB6
:1010FE0000000000EB02BE021A039402B702A40223
:10110E00950200000000B604A8001A0346015254CE
:0E111E004320627920445331333037003A00C9
:00000001FF
