:100000000C945C000C9479000C9479000C947900A9
:100010000C9479000C9479000C9479000C9479007C
:100020000C9479000C9479000C9479000C9479006C
:100030000C9479000C9479000C9479000C9479005C
:100040000C943C010C9479000C9479000C94790088
:100050000C9479000C9479000C9479000C9479003C
:100060000C9479000C947900000000002400270013
:100070002A0000000000250028002B0004040404CE
:100080000404040402020202020203030303030342
:10009000010204081020408001020408102001021F
:1000A00004081020000000080002010000030407FB
:1000B000000000000000000011241FBECFEFD8E0B8
:1000C000DEBFCDBF13E0A0E0B1E0EAEAF4E002C099
:1000D00005900D92A036B107D9F723E0A0E6B3E072
:1000E00001C01D92AA38B207E1F70E9486010C9464
:1000F00053020C94000090E0FC01EC55FF4F24915A
:10010000FC01E057FF4F3491FC01E458FF4FE491AC
:10011000EE23C9F0222339F0233001F1A8F4213075
:1001200019F1223029F1F0E0EE0FFF1FEE58FF4FDA
:10013000A591B4918FB7F894EC91611126C03095D8
:100140003E233C938FBF08952730A9F02830C9F093
:10015000243049F7809180008F7D03C0809180001A
:100160008F7780938000DFCF84B58F7784BDDBCF1E
:1001700084B58F7DFBCF8091B0008F778093B000E6
:10018000D2CF8091B0008F7DF9CF3E2BDACFCF93C5
:10019000DF93D82FC8E06D2F661F6627661F88E0A3
:1001A0000E947B00DD0F61E089E00E947B0060E03F
:1001B00089E00E947B00C15071F7DF91CF910895D3
:1001C0007F928F929F92AF92BF92CF92DF92EF92E7
:1001D000FF920F931F93CF93DF93982EB12C01E0E2
:1001E00010E08BE8E82EFF24F394AA24A394D12CEA
:1001F000D0E0C0E0EC2FED0DF0E0E05AFC4F708055
:10020000C8010C2E01C0880F0A94EAF7882E80944A
:10021000CC24C394882DAC108FEF0E94C700C394E8
:1002200085E0C812F7CF872D0E94C70061E08AE001
:100230000E947B0060E08AE00E947B00C70101977A
:10024000F1F72196C830D105A9F628E0D20EA39483
:1002500080E2D812CDCFB3949B10C7CFDF91CF915E
:100260001F910F91FF90EF90DF90CF90BF90AF90D4
:100270009F908F907F9008951F920F920FB60F92CC
:1002800011242F933F938F939F93AF93BF938091AC
:10029000860390918703A0918803B09189033091E0
:1002A000850323E0230F2D3758F50196A11DB11DBD
:1002B000209385038093860390938703A0938803FC
:1002C000B09389038091810390918203A09183036D
:1002D000B09184030196A11DB11D80938103909379
:1002E0008203A0938303B0938403BF91AF919F9146
:1002F0008F913F912F910F900FBE0F901F901895E7
:1003000026E8230F0296A11DB11DD2CF789484B5A3
:10031000826084BD84B5816084BD85B5826085BD01
:1003200085B5816085BD80916E00816080936E008F
:100330001092810080918100826080938100809181
:100340008100816080938100809180008160809332
:1003500080008091B10084608093B1008091B000F2
:1003600081608093B00080917A00846080937A00ED
:1003700080917A00826080937A0080917A00816017
:1003800080937A0080917A00806880937A0010923E
:10039000C10028E030E0F901E057FF4F4491F90136
:1003A000E458FF4F8491882399F090E0880F991FBB
:1003B000FC01E859FF4FA591B491FC01EE58FF4FA5
:1003C000859194918FB7F894EC91E42BEC938FBFC7
:1003D0002F5F3F4F2B303105F1F6D6E090E8E92E44
:1003E00093E0F92E20E0C22E20E0D22E80E4A82E49
:1003F00083E0B82E712CF501C1915F01C052C0930A
:100400008003CD9FC00111249C0120503F4F490122
:1004100010E000E0C1111CC0033000F173948EE1C4
:100420007812E9CFC0E2E0E6F3E08181819393E0C6
:10043000E038F907D1F710927F0385E00E94E000D1
:10044000C15089F7C114D10489F20E940000CECFB7
:10045000F401E00FF11F8081882389F0F401E00F9F
:10046000F11F8081E0E6F3E09181919333E0E03881
:10047000F307D1F780937F0384E00E94E0000F5FD1
:100480001F4F0630110531F6CC2341F2E0E6F3E0D0
:1004900081818193EE16FF06D9F710927F0384E0E5
:0A04A0000E94E000BBCFF894FFCFEC
:1004AA000000000000000000002F0000000007000C
:1004BA00070000147F147F1400242A7F2A120023C5
:1004CA0013086462003649552250000005030000F3
:1004DA0000001C224100000041221C000014083EBA
:1004EA0008140008083E08080000005030000010F8
:1004FA0010101010000060600000002010080402B4
:10050A00003E5149453E0000427F40000042615191
:10051A004946002141454B31001814127F1000272B
:10052A0045454539003C4A494930000171090503EE
:10053A0000364949493600064949291E000036361F
:10054A000000000056360000000814224100001482
:10055A00141414140000412214080002015109065F
:10056A0000324959513E007E1111117E007F4949DE
:10057A004936003E41414122007F4141221C007F11
:10058A0049494941007F09090901003E4149497A1F
:10059A00007F0808087F0000417F41000020404199
:1005AA003F01007F08142241007F40404040007F05
:1005BA00020C027F007F0408107F003E4141413E49
:1005CA00007F09090906003E4151215E007F091991
:1005DA0029460046494949310001017F0101003F8E
:1005EA004040403F001F2040201F003F4038403F0E
:1005FA000063140814630007087008070061514972
:10060A00454300007F414100000204081020000019
:10061A0041417F0000040201020400404040404082
:10062A00000001020400002054545478007F48441A
:10063A00443800384444442000384444487F003851
:10064A005454541800087E090102000C5252523EBA
:10065A00007F080404780000447D400000204044E4
:10066A003D00007F102844000000417F4000007CCC
:10067A0004180478007C0804047800384444443898
:10068A00007C1414140800081414187C007C080454
:10069A00040800485454542000043F444020003CBD
:1006AA004040207C001C2040201C003C4030403C44
:1006BA00004428102844000C5050503C0044645414
:1006CA004C440000083641000000007F0000000092
:1006DA004136080000040204080400000036000045
:1006EA0044657369676E6564206279202E2E2E2E0A
:1006FA002E2E2E2E2E2E2E2E2E2E2E2E2E2E00006C
:00000001FF
