:100000000C945D000C9485000C9485000C94850084
:100010000C9485000C9485000C9485000C9485004C
:100020000C9485000C9485000C9485000C9485003C
:100030000C9485000C9485000C9485000C9485002C
:100040000C94E2020C9485000C9452030C942C0343
:100050000C9485000C9485000C9485000C9485000C
:100060000C9485000C9485000000000024002700FB
:100070002A0000000000250028002B0004040404CE
:100080000404040402020202020203030303030342
:10009000010204081020408001020408102001021F
:1000A00004081020000000080002010000030407FB
:1000B0000000000000000000DE0411241FBECFEF8E
:1000C000D8E0DEBFCDBF11E0A0E0B1E0E0E9FAE0AA
:1000D00002C005900D92A234B107D9F721E0A2E445
:1000E000B1E001C01D92A83EB207E1F710E0CDE5F6
:1000F000D0E004C02197FE010E944005CC35D10715
:10010000C9F70E9484030C9446050C94000090E00B
:10011000FC01EC55FF4F2491FC01E057FF4F349157
:10012000FC01E458FF4FE491EE23C9F0222339F09B
:10013000233001F1A8F4213019F1223029F1F0E047
:10014000EE0FFF1FEE58FF4FA591B4918FB7F894B3
:10015000EC91611126C030953E233C938FBF0895EA
:100160002730A9F02830C9F0243049F78091800069
:100170008F7D03C0809180008F7780938000DFCFD8
:1001800084B58F7784BDDBCF84B58F7DFBCF809125
:10019000B0008F778093B000D2CF8091B0008F7D78
:1001A000F9CF3E2BDACFCF93DF9390E0FC01E057FD
:1001B000FF4F249184589F4FFC0184918823D1F0F4
:1001C00090E0880F991FFC01E859FF4FA591B49169
:1001D000FC01EE58FF4FC591D491623071F49FB786
:1001E000F8943C91822F809583238C93E8812E2B69
:1001F00028839FBFDF91CF9108958FB7F894EC913A
:100200002E2B2C938FBFF6CF3FB7F89480914701E8
:1002100090914801A0914901B0914A0126B5A89B4F
:1002200005C02F3F19F00196A11DB11D3FBFBA2F88
:10023000A92F982F8827BC01CD01620F711D811D48
:10024000911D42E0660F771F881F991F4A95D1F7CD
:1002500008958F929F92AF92BF92CF92DF92EF92CA
:10026000FF924B015C010E9404016B017C010E9422
:1002700004016C197D098E099F09683E7340810550
:100280009105A8F321E0821A9108A108B10888EE2F
:10029000C80E83E0D81EE11CF11C81149104A10456
:1002A000B10429F7FF90EF90DF90CF90BF90AF900F
:1002B0009F908F900895AF92BF92CF92DF92EF926E
:1002C000FF920F931F93CF93DF936C017B018B0100
:1002D000040F151FEB015E01AE18BF08C017D10750
:1002E00059F06991D601ED91FC910190F081E02DDA
:1002F000C6010995892B79F7C501DF91CF911F912F
:100300000F91FF90EF90DF90CF90BF90AF90089546
:10031000FC01538D448D252F30E0842F90E0821B0B
:10032000930B541710F0CF96089501970895FC0190
:10033000918D828D981761F0A28DAE0FBF2FB11DE8
:100340005D968C91928D9F5F9F73928F90E0089540
:100350008FEF9FEF0895FC01918D828D981731F0FA
:10036000828DE80FF11D858D90E008958FEF9FEF4E
:100370000895FC01918D228D892F90E0805C9F4F24
:10038000821B91098F73992708958BE491E00E9455
:10039000B90121E0892B09F420E0822F089580E043
:1003A00090E0892B29F00E94C50181110C94000076
:1003B0000895FC01A48DA80FB92FB11DA35ABF4FFA
:1003C0002C91848D90E001968F739927848FA68954
:1003D000B7892C93A089B1898C91837080648C93A8
:1003E000938D848D981306C00288F389E02D808157
:1003F0008F7D80830895EF92FF920F931F93CF9389
:10040000DF93EC0181E0888F9B8D8C8D98131AC04F
:10041000E889F989808185FF15C09FB7F894EE8936
:10042000FF896083E889F989808183708064808393
:100430009FBF81E090E0DF91CF911F910F91FF90DE
:10044000EF900895F62E0B8D10E00F5F1F4F0F7386
:100450001127E02E8C8D8E110CC00FB607FCFACF41
:10046000E889F989808185FFF5CFCE010E94D90105
:10047000F1CFEB8DEC0FFD2FF11DE35AFF4FF08212
:100480009FB7F8940B8FEA89FB8980818062CFCF78
:10049000CF93DF93EC01888D8823B9F0AA89BB89BB
:1004A000E889F9898C9185FD03C0808186FD0DC0A6
:1004B0000FB607FCF7CF8C9185FFF2CF808185FFC7
:1004C000EDCFCE010E94D901E9CFDF91CF91089500
:1004D000CF93DF93FC0101900020E9F73197AF0142
:1004E000481B590BBC018BE491E00E945B01EC01BD
:1004F00042E050E062E171E08BE491E00E945B0138
:100500008C0F9D1FDF91CF910895CF93DF93C82F5C
:10051000682F617086E00E948700D0E0BE0175956B
:100520006795617085E00E948700BE0175956795AB
:1005300075956795617084E00E948700BE0123E095
:10054000759567952A95E1F783E00E94870061E041
:100550008BE00E94870060E08BE00E9487008BE1C7
:1005600093E00197F1F7DF91CF910895CF93C82FD2
:1005700061E08CE00E9487008C2F82958F700E9432
:1005800085028C2F8F700E94850265E070E080E00C
:1005900090E0CF910C942901CF93C82F60E08CE0BC
:1005A0000E9487008C2F82958F700E9485028C2F6D
:1005B0008F700E94850265E070E080E090E0CF914E
:1005C0000C9429011F920F920FB60F9211242F93B2
:1005D0003F938F939F93AF93BF93809143019091EB
:1005E0004401A0914501B09146013091420123E0C0
:1005F000230F2D3758F50196A11DB11D20934201FF
:100600008093430190934401A0934501B093460128
:100610008091470190914801A0914901B0914A0110
:100620000196A11DB11D8093470190934801A093AD
:100630004901B0934A01BF91AF919F918F913F9132
:100640002F910F900FBE0F901F90189526E8230F43
:100650000296A11DB11DD2CF1F920F920FB60F921D
:1006600011242F933F934F935F936F937F938F93B7
:100670009F93AF93BF93EF93FF938BE491E00E941E
:10068000D901FF91EF91BF91AF919F918F917F9190
:100690006F915F914F913F912F910F900FBE0F90EF
:1006A0001F9018951F920F920FB60F9211242F933F
:1006B0008F939F93EF93FF93E0915B01F0915C0127
:1006C0008081E0916101F091620182FD1BC0908107
:1006D000809164018F5F8F7320916501821741F0D3
:1006E000E0916401F0E0E55BFE4F958F809364013B
:1006F000FF91EF919F918F912F910F900FBE0F90CF
:100700001F9018958081F4CFCF93DF93CDB7DEB7DC
:100710006A970FB6F894DEBF0FBECDBF789484B54C
:10072000826084BD84B5816084BD85B5826085BDED
:1007300085B5816085BD80916E00816080936E007B
:10074000109281008091810082608093810080916D
:10075000810081608093810080918000816080931E
:1007600080008091B10084608093B1008091B000DE
:1007700081608093B00080917A00846080937A00D9
:1007800080917A00826080937A0080917A00816003
:1007900080937A0080917A00806880937A0010922A
:1007A000C10061E08CE00E94D30061E08BE00E9418
:1007B000D30061E086E00E94D30061E085E00E9402
:1007C000D30061E084E00E94D30061E083E00E94F6
:1007D000D30062E08EE00E94D30062E08FE00E94CE
:1007E000D30062E080E10E94D30062E081E10E94D8
:1007F000D30064E670E080E090E00E94290183E08D
:100800000E94850265E070E080E090E00E9429018E
:1008100083E00E94850265E070E080E090E00E9445
:10082000290183E00E94850265E070E080E090E0AD
:100830000E94290182E00E94850288E20E94CC0287
:1008400065E070E080E090E00E9429018CE00E9469
:10085000CC0265E070E080E090E00E94290181E038
:100860000E94CC0265E070E080E090E00E942901E7
:1008700086E00E94CC0265E070E080E090E00E949B
:10088000290181E00E94CC02E0915B01F0915C01C2
:1008900082E08083E0915701F09158011082E0914D
:1008A0005901F0915A018FEC808310926301E0911D
:1008B0005F01F091600186E08083E0915D01F0913D
:1008C0005E01808180618083E0915D01F0915E0135
:1008D000808188608083E0915D01F0915E0180817C
:1008E00080688083E0915D01F0915E0180818F7D61
:1008F000808385E191E00E9468028E010F5F1F4FA7
:1009000090E0892E90E0992E6801F12CE12C8BE487
:1009100091E00E94B90118161906CCF78BE491E01A
:100920000E9497018D30910551F0F60181936F017E
:10093000FFEFEF1AFF0A80E1E816F10441F781E8C2
:100940000E94CC028FE2C82E81E0D82EF601819160
:100950006F01882319F00E94B602F8CF81EC0E9443
:10096000CC026801C601801B910B8E159F05BCF45B
:10097000F60181916F014AE0BE016F5E7F4F082E44
:10098000000C990B0E940B05CE0141965C01F5010C
:1009900081915F01882331F30E94B602F8CFC8012C
:1009A0000E9468028114910409F4AECF0E94C5012F
:1009B000882309F4A9CF0E940000A6CFEBE4F1E060
:1009C0001382128288EE93E0A0E0B0E084839583E6
:1009D000A683B78384E091E09183808385EC90E0E7
:1009E0009587848784EC90E09787868780EC90E0F9
:1009F000918B808B81EC90E0938B828B82EC90E0EA
:100A0000958B848B86EC90E0978B868B118E128E63
:100A1000138E148E0895BB274A3031F4992322F4A3
:100A2000BDE2909581959F4F0C941705BB27FB0164
:100A30005527AA27880F991FAA1FA41710F0A41BD7
:100A400083955051B9F7A05DAA3308F0A95DA19331
:100A5000009779F7B111B1931192CB010C94300545
:100A6000DC01FC01672F71917723E1F7329704C015
:100A70007C916D9370836291AE17BF07C8F30895A0
:100A8000EE0FFF1F0590F491E02D0994F894FFCF2D
:100A900000000000FB015B0188014802B9019701D9
:100AA000AB010D0A00456E74657220416C7068617F
:100AB0002D6E756D6572696320446174613A0052F0
:100AC0006563656976656420537472696E673A2060
:020AD000000024
:00000001FF
