:100000000C945C000C9479000C9479000C947900A9
:100010000C9479000C9479000C9479000C9479007C
:100020000C9479000C9479000C9479000C9479006C
:100030000C9479000C9479000C9479000C9479005C
:100040000C940B010C9479000C9479000C947900B9
:100050000C9479000C9479000C9479000C9479003C
:100060000C9479000C947900000000080002010053
:100070000003040700000000000000000000000072
:10008000250028002B0000000000240027002A0083
:10009000040404040404040402020202020203032E
:1000A0000303030301020408102040800102040836
:1000B000102001020408102011241FBECFEFD8E049
:1000C000DEBFCDBF13E0A0E0B1E0ECE1F5E002C09F
:1000D00005900D92AC3DB107D9F724E0ACEDB3E04B
:1000E00001C01D92A332B207E1F70E9455010C94A2
:1000F0008C020C94000090E0FC01EC55FF4F249121
:1001000080579F4FFC018491882399F090E0880FDD
:10011000991FFC01EA57FF4FA591B491FC01E458E7
:10012000FF4F859194918FB7F894EC91E22BEC936B
:100130008FBF089590E0FC01E859FF4F2491FC0126
:10014000EC55FF4F3491FC01E057FF4FE491EE2353
:10015000C9F0222339F0233001F1A8F4213019F13C
:10016000223029F1F0E0EE0FFF1FE458FF4FA59178
:10017000B4918FB7F894EC91611126C030953E236D
:100180003C938FBF08952730A9F02830C9F0243060
:1001900049F7809180008F7D03C0809180008F7728
:1001A00080938000DFCF84B58F7784BDDBCF84B5AB
:1001B0008F7DFBCF8091B0008F778093B000D2CF3E
:1001C0008091B0008F7DF9CF3E2BDACF3FB7F89406
:1001D00080911F0490912004A0912104B0912204E9
:1001E00026B5A89B05C02F3F19F00196A11DB11D92
:1001F0003FBFBA2FA92F982F8827BC01CD01620FCE
:10020000711D811D911D42E0660F771F881F991F88
:100210004A95D1F708951F920F920FB60F921124AD
:100220002F933F938F939F93AF93BF9380911B0422
:1002300090911C04A0911D04B0911E0430911A04E9
:1002400023E0230F2D3758F50196A11DB11D2093F2
:100250001A0480931B0490931C04A0931D04B09374
:100260001E0480911F0490912004A0912104B0915C
:1002700022040196A11DB11D80931F0490932004B8
:10028000A0932104B0932204BF91AF919F918F91CD
:100290003F912F910F900FBE0F901F90189526E859
:1002A000230F0296A11DB11DD2CFCF93DF93CDB7FF
:1002B000DEB7CA56D1090FB6F894DEBF0FBECDBF68
:1002C000789484B5826084BD84B5816084BD85B531
:1002D000826085BD85B5816085BD80916E0081603D
:1002E00080936E00109281008091810082608093E3
:1002F00081008091810081608093810080918000E5
:100300008160809380008091B10084608093B1000F
:100310008091B00081608093B00080917A00846009
:1003200080937A0080917A00826080937A00809135
:100330007A00816080937A0080917A00806880934F
:100340007A001092C1008AE00E947B0088E00E943F
:100350007B0089E00E947B0087E00E947B008CE0AC
:100360000E947B008BE00E947B008FEF8AB98E0198
:100370000F5F1F4FCE014A96A7969FAF8EAFA797EC
:100380005EED252E53E0352E60E0862E60E0962E41
:1003900089E1E0E0F1E0D80101900D928A95E1F762
:1003A000A796EEADFFADA7972BE411922A95E9F73A
:1003B0006801F80101900020E9F73197E01BF10B8B
:1003C000C601801B910BE817F90709F49EC0F601DE
:1003D00081916F01082E000C990B809726E0289FD1
:1003E000F001299FF00D1124EE55FE4F8481A9964E
:1003F0008FAFA9979381AB969FAFAB972281AA96B7
:100400002FAFAA978181A8968FAFA897808146E0E9
:10041000A42EB12C082E000C990B9093DF0380932F
:10042000DE031092DD031092DC038091DC039091D7
:10043000DD038E319105DCF5880F991FFC01E25236
:10044000FC4F80818BB9E090DC03F090DD03F70175
:10045000EE0FFF1FEC59FE4F608189E00E949A0069
:1004600061E08AE00E949A000E94E6002B013C01B4
:100470000E94E6006419750986099709683E734071
:1004800081059105A8F360E08AE00E949A0061E08E
:1004900088E00E949A0060E088E00E949A009FEF46
:1004A000E91AF90AF092DD03E092DC03BECFE8E13D
:1004B000F4E02E163F0629F0929182919383828375
:1004C000F8CF1092DD031092DC03F1E0AF1AB1080F
:1004D000A8968FADA897AA962FADAA97A8962FAFEA
:1004E000A897AB969FADAB97AA969FAFAA97A996F0
:1004F000EFADA997AB96EFAFAB97A9961FAEA997B3
:10050000A114B10409F086CF54CF8114910409F4E9
:0C0510003FCF0E9400003CCFF894FFCFCA
:10051C00446F74204D61747269782062792066652D
:10052C006479302E20202020000000000000000004
:10053C0000000000000000000000000000000000AF
:10054C00000000000000000000000000000000009F
:10055C00000000000000000000000000000000008F
:10056C00000000000000000000000000000000007F
:10057C00000000000100000000000000000000006E
:10058C00000000000000000000000000000000005F
:10059C00000000000000000000000000000000004F
:1005AC00000000000000000000000000000000003F
:1005BC00000000000000000000005F0000000007C9
:1005CC0000070000147F147F1400242A7F2A1200D5
:1005DC0023130864620036495522500000050300BD
:1005EC000000001C224100000041221C0000082ACF
:1005FC001C2A080008083E080800005030000000C3
:10060C0008080808080000606000000020100804BA
:10061C0002003E5149453E0000427F4000004261CD
:10062C00514946002141454B31001814127F1000EE
:10063C002745454539003C4A4949300001710905B7
:10064C000300364949493600064949291E0000363F
:10065C00360000000056360000000008142241004D
:10066C00141414141400412214080000020151093E
:10067C000600324979413E007E1111117E007F49FE
:10068C00494936003E41414122007F4141221C0034
:10069C007F49494941007F09090101003E4141510F
:1006AC0032007F0808087F0000417F410000204095
:1006BC00413F01007F08142241007F404040400030
:1006CC007F0204027F007F0408107F003E414141FD
:1006DC003E007F09090906003E4151215E007F0959
:1006EC001929460046494949310001017F010100A1
:1006FC003F4040403F001F2040201F007F2018201B
:10070C007F00631408146300030478040300615130
:10071C004945430000007F414100020408102000BD
:10072C0041417F00000004020102040040404040AF
:10073C0040000001020400002054545478007F480B
:10074C0044443800384444442000384444487F0032
:10075C00385454541800087E0901020008145454EB
:10076C003C007F080404780000447D4000002040D9
:10077C00443D0000007F1028440000417F400000F1
:10078C007C04180478007C08040478003844444441
:10079C0038007C1414140800081414187C007C080D
:1007AC0004040800485454542000043F44402000E2
:1007BC003C4040207C001C2040201C003C40304031
:1007CC003C004428102844000C5050503C00446419
:1007DC00544C440000083641000000007F0000002B
:0C07EC0000413608000008100810000052
:00000001FF
